165E:000001A0  int  15                                                EAX:0000220D EBX:0000FFFF ECX:00007FEA EDX:00000000 ESI:00007BD0 EDI:0000211E EBP:00007BD8 ESP:00007BC2 DS:3E00 ES:0000 FS:0000 GS:0000 SS:3E00 CF:0 ZF:0 SF:0 OF:0 AF:0 PF:1 IF:1
F000:000011E0  callback 000F  (Int 15 Bios)                           EAX:0000220D EBX:0000FFFF ECX:00007FEA EDX:00000000 ESI:00007BD0 EDI:0000211E EBP:00007BD8 ESP:00007BBC DS:3E00 ES:0000 FS:0000 GS:0000 SS:3E00 CF:0 ZF:0 SF:0 OF:0 AF:0 PF:1 IF:0
F000:000011E4  iret                                                   EAX:0000860D EBX:0000FFFF ECX:00007FEA EDX:00000000 ESI:00007BD0 EDI:0000211E EBP:00007BD8 ESP:00007BBC DS:3E00 ES:0000 FS:0000 GS:0000 SS:3E00 CF:0 ZF:0 SF:0 OF:0 AF:0 PF:1 IF:0
165E:000001A2  mov  ax,es                                             EAX:0000860D EBX:0000FFFF ECX:00007FEA EDX:00000000 ESI:00007BD0 EDI:0000211E EBP:00007BD8 ESP:00007BC2 DS:3E00 ES:0000 FS:0000 GS:0000 SS:3E00 CF:1 ZF:0 SF:0 OF:0 AF:0 PF:1 IF:1
165E:000001A4  jnc  000001A9 ($+3)             (no jmp)               EAX:00000000 EBX:0000FFFF ECX:00007FEA EDX:00000000 ESI:00007BD0 EDI:0000211E EBP:00007BD8 ESP:00007BC2 DS:3E00 ES:0000 FS:0000 GS:0000 SS:3E00 CF:1 ZF:0 SF:0 OF:0 AF:0 PF:1 IF:1
165E:000001A6  mov  ax,F600                                           EAX:00000000 EBX:0000FFFF ECX:00007FEA EDX:00000000 ESI:00007BD0 EDI:0000211E EBP:00007BD8 ESP:00007BC2 DS:3E00 ES:0000 FS:0000 GS:0000 SS:3E00 CF:1 ZF:0 SF:0 OF:0 AF:0 PF:1 IF:1
165E:000001A9  mov  ds,ax                                             EAX:0000F600 EBX:0000FFFF ECX:00007FEA EDX:00000000 ESI:00007BD0 EDI:0000211E EBP:00007BD8 ESP:00007BC2 DS:3E00 ES:0000 FS:0000 GS:0000 SS:3E00 CF:1 ZF:0 SF:0 OF:0 AF:0 PF:1 IF:1
165E:000001AB  xor  si,si                                             EAX:0000F600 EBX:0000FFFF ECX:00007FEA EDX:00000000 ESI:00007BD0 EDI:0000211E EBP:00007BD8 ESP:00007BC2 DS:F600 ES:0000 FS:0000 GS:0000 SS:3E00 CF:1 ZF:0 SF:0 OF:0 AF:0 PF:1 IF:1
165E:000001AD  mov  bx,080C                                           EAX:0000F600 EBX:0000FFFF ECX:00007FEA EDX:00000000 ESI:00000000 EDI:0000211E EBP:00007BD8 ESP:00007BC2 DS:F600 ES:0000 FS:0000 GS:0000 SS:3E00 CF:0 ZF:1 SF:0 OF:0 AF:0 PF:1 IF:1
165E:000001B0  mov  ax,1688                                           EAX:0000F600 EBX:0000080C ECX:00007FEA EDX:00000000 ESI:00000000 EDI:0000211E EBP:00007BD8 ESP:00007BC2 DS:F600 ES:0000 FS:0000 GS:0000 SS:3E00 CF:0 ZF:1 SF:0 OF:0 AF:0 PF:1 IF:1
165E:000001B3  mov  es,ax                                             EAX:00001688 EBX:0000080C ECX:00007FEA EDX:00000000 ESI:00000000 EDI:0000211E EBP:00007BD8 ESP:00007BC2 DS:F600 ES:0000 FS:0000 GS:0000 SS:3E00 CF:0 ZF:1 SF:0 OF:0 AF:0 PF:1 IF:1
165E:000001B5  lodsw                                                  EAX:00001688 EBX:0000080C ECX:00007FEA EDX:00000000 ESI:00000000 EDI:0000211E EBP:00007BD8 ESP:00007BC2 DS:F600 ES:1688 FS:0000 GS:0000 SS:3E00 CF:0 ZF:1 SF:0 OF:0 AF:0 PF:1 IF:1
165E:000001B6  xor  es:[bx],ax                 es:[080C]=D9B9         EAX:00000000 EBX:0000080C ECX:00007FEA EDX:00000000 ESI:00000002 EDI:0000211E EBP:00007BD8 ESP:00007BC2 DS:F600 ES:1688 FS:0000 GS:0000 SS:3E00 CF:0 ZF:1 SF:0 OF:0 AF:0 PF:1 IF:1
165E:000001B9  inc  bx                                                EAX:00000000 EBX:0000080C ECX:00007FEA EDX:00000000 ESI:00000002 EDI:0000211E EBP:00007BD8 ESP:00007BC2 DS:F600 ES:1688 FS:0000 GS:0000 SS:3E00 CF:0 ZF:0 SF:1 OF:0 AF:0 PF:0 IF:1
165E:000001BA  inc  bx                                                EAX:00000000 EBX:0000080D ECX:00007FEA EDX:00000000 ESI:00000002 EDI:0000211E EBP:00007BD8 ESP:00007BC2 DS:F600 ES:1688 FS:0000 GS:0000 SS:3E00 CF:0 ZF:0 SF:0 OF:0 AF:0 PF:0 IF:1
165E:000001BB  cmp  bx,0B19                                           EAX:00000000 EBX:0000080E ECX:00007FEA EDX:00000000 ESI:00000002 EDI:0000211E EBP:00007BD8 ESP:00007BC2 DS:F600 ES:1688 FS:0000 GS:0000 SS:3E00 CF:0 ZF:0 SF:0 OF:0 AF:0 PF:0 IF:1
165E:000001BF  jc   000001B5 ($-c)             (up)                   EAX:00000000 EBX:0000080E ECX:00007FEA EDX:00000000 ESI:00000002 EDI:0000211E EBP:00007BD8 ESP:00007BC2 DS:F600 ES:1688 FS:0000 GS:0000 SS:3E00 CF:1 ZF:0 SF:1 OF:0 AF:0 PF:1 IF:1
165E:000001B5  lodsw                                                  EAX:00000000 EBX:0000080E ECX:00007FEA EDX:00000000 ESI:00000002 EDI:0000211E EBP:00007BD8 ESP:00007BC2 DS:F600 ES:1688 FS:0000 GS:0000 SS:3E00 CF:1 ZF:0 SF:1 OF:0 AF:0 PF:1 IF:1
165E:000001B6  xor  es:[bx],ax                 es:[080E]=0029         EAX:00000000 EBX:0000080E ECX:00007FEA EDX:00000000 ESI:00000004 EDI:0000211E EBP:00007BD8 ESP:00007BC2 DS:F600 ES:1688 FS:0000 GS:0000 SS:3E00 CF:1 ZF:0 SF:1 OF:0 AF:0 PF:1 IF:1
165E:000001B9  inc  bx                                                EAX:00000000 EBX:0000080E ECX:00007FEA EDX:00000000 ESI:00000004 EDI:0000211E EBP:00007BD8 ESP:00007BC2 DS:F600 ES:1688 FS:0000 GS:0000 SS:3E00 CF:0 ZF:0 SF:0 OF:0 AF:0 PF:0 IF:1
165E:000001BA  inc  bx                                                EAX:00000000 EBX:0000080F ECX:00007FEA EDX:00000000 ESI:00000004 EDI:0000211E EBP:00007BD8 ESP:00007BC2 DS:F600 ES:1688 FS:0000 GS:0000 SS:3E00 CF:0 ZF:0 SF:0 OF:0 AF:0 PF:1 IF:1
165E:000001BB  cmp  bx,0B19                                           EAX:00000000 EBX:00000810 ECX:00007FEA EDX:00000000 ESI:00000004 EDI:0000211E EBP:00007BD8 ESP:00007BC2 DS:F600 ES:1688 FS:0000 GS:0000 SS:3E00 CF:0 ZF:0 SF:0 OF:0 AF:1 PF:0 IF:1
165E:000001BF  jc   000001B5 ($-c)             (up)                   EAX:00000000 EBX:00000810 ECX:00007FEA EDX:00000000 ESI:00000004 EDI:0000211E EBP:00007BD8 ESP:00007BC2 DS:F600 ES:1688 FS:0000 GS:0000 SS:3E00 CF:1 ZF:0 SF:1 OF:0 AF:1 PF:0 IF:1
165E:000001B5  lodsw                                                  EAX:00000000 EBX:00000810 ECX:00007FEA EDX:00000000 ESI:00000004 EDI:0000211E EBP:00007BD8 ESP:00007BC2 DS:F600 ES:1688 FS:0000 GS:0000 SS:3E00 CF:1 ZF:0 SF:1 OF:0 AF:1 PF:0 IF:1
165E:000001B6  xor  es:[bx],ax                 es:[0810]=66D5         EAX:00000000 EBX:00000810 ECX:00007FEA EDX:00000000 ESI:00000006 EDI:0000211E EBP:00007BD8 ESP:00007BC2 DS:F600 ES:1688 FS:0000 GS:0000 SS:3E00 CF:1 ZF:0 SF:1 OF:0 AF:1 PF:0 IF:1
165E:000001B9  inc  bx                                                EAX:00000000 EBX:00000810 ECX:00007FEA EDX:00000000 ESI:00000006 EDI:0000211E EBP:00007BD8 ESP:00007BC2 DS:F600 ES:1688 FS:0000 GS:0000 SS:3E00 CF:0 ZF:0 SF:0 OF:0 AF:0 PF:0 IF:1
165E:000001BA  inc  bx                                                EAX:00000000 EBX:00000811 ECX:00007FEA EDX:00000000 ESI:00000006 EDI:0000211E EBP:00007BD8 ESP:00007BC2 DS:F600 ES:1688 FS:0000 GS:0000 SS:3E00 CF:0 ZF:0 SF:0 OF:0 AF:0 PF:1 IF:1
165E:000001BB  cmp  bx,0B19                                           EAX:00000000 EBX:00000812 ECX:00007FEA EDX:00000000 ESI:00000006 EDI:0000211E EBP:00007BD8 ESP:00007BC2 DS:F600 ES:1688 FS:0000 GS:0000 SS:3E00 CF:0 ZF:0 SF:0 OF:0 AF:0 PF:1 IF:1
165E:000001BF  jc   000001B5 ($-c)             (up)                   EAX:00000000 EBX:00000812 ECX:00007FEA EDX:00000000 ESI:00000006 EDI:0000211E EBP:00007BD8 ESP:00007BC2 DS:F600 ES:1688 FS:0000 GS:0000 SS:3E00 CF:1 ZF:0 SF:1 OF:0 AF:1 PF:1 IF:1
165E:000001B5  lodsw                                                  EAX:00000000 EBX:00000812 ECX:00007FEA EDX:00000000 ESI:00000006 EDI:0000211E EBP:00007BD8 ESP:00007BC2 DS:F600 ES:1688 FS:0000 GS:0000 SS:3E00 CF:1 ZF:0 SF:1 OF:0 AF:1 PF:1 IF:1
165E:000001B6  xor  es:[bx],ax                 es:[0812]=5C6A         EAX:00000000 EBX:00000812 ECX:00007FEA EDX:00000000 ESI:00000008 EDI:0000211E EBP:00007BD8 ESP:00007BC2 DS:F600 ES:1688 FS:0000 GS:0000 SS:3E00 CF:1 ZF:0 SF:1 OF:0 AF:1 PF:1 IF:1
165E:000001B9  inc  bx                                                EAX:00000000 EBX:00000812 ECX:00007FEA EDX:00000000 ESI:00000008 EDI:0000211E EBP:00007BD8 ESP:00007BC2 DS:F600 ES:1688 FS:0000 GS:0000 SS:3E00 CF:0 ZF:0 SF:0 OF:0 AF:0 PF:1 IF:1
165E:000001BA  inc  bx                                                EAX:00000000 EBX:00000813 ECX:00007FEA EDX:00000000 ESI:00000008 EDI:0000211E EBP:00007BD8 ESP:00007BC2 DS:F600 ES:1688 FS:0000 GS:0000 SS:3E00 CF:0 ZF:0 SF:0 OF:0 AF:0 PF:0 IF:1
165E:000001BB  cmp  bx,0B19                                           EAX:00000000 EBX:00000814 ECX:00007FEA EDX:00000000 ESI:00000008 EDI:0000211E EBP:00007BD8 ESP:00007BC2 DS:F600 ES:1688 FS:0000 GS:0000 SS:3E00 CF:0 ZF:0 SF:0 OF:0 AF:0 PF:1 IF:1
165E:000001BF  jc   000001B5 ($-c)             (up)                   EAX:00000000 EBX:00000814 ECX:00007FEA EDX:00000000 ESI:00000008 EDI:0000211E EBP:00007BD8 ESP:00007BC2 DS:F600 ES:1688 FS:0000 GS:0000 SS:3E00 CF:1 ZF:0 SF:1 OF:0 AF:1 PF:0 IF:1
165E:000001B5  lodsw                                                  EAX:00000000 EBX:00000814 ECX:00007FEA EDX:00000000 ESI:00000008 EDI:0000211E EBP:00007BD8 ESP:00007BC2 DS:F600 ES:1688 FS:0000 GS:0000 SS:3E00 CF:1 ZF:0 SF:1 OF:0 AF:1 PF:0 IF:1
165E:000001B6  xor  es:[bx],ax                 es:[0814]=4E23         EAX:00000000 EBX:00000814 ECX:00007FEA EDX:00000000 ESI:0000000A EDI:0000211E EBP:00007BD8 ESP:00007BC2 DS:F600 ES:1688 FS:0000 GS:0000 SS:3E00 CF:1 ZF:0 SF:1 OF:0 AF:1 PF:0 IF:1
165E:000001B9  inc  bx                                                EAX:00000000 EBX:00000814 ECX:00007FEA EDX:00000000 ESI:0000000A EDI:0000211E EBP:00007BD8 ESP:00007BC2 DS:F600 ES:1688 FS:0000 GS:0000 SS:3E00 CF:0 ZF:0 SF:0 OF:0 AF:0 PF:0 IF:1
165E:000001BA  inc  bx                                                EAX:00000000 EBX:00000815 ECX:00007FEA EDX:00000000 ESI:0000000A EDI:0000211E EBP:00007BD8 ESP:00007BC2 DS:F600 ES:1688 FS:0000 GS:0000 SS:3E00 CF:0 ZF:0 SF:0 OF:0 AF:0 PF:0 IF:1
165E:000001BB  cmp  bx,0B19                                           EAX:00000000 EBX:00000816 ECX:00007FEA EDX:00000000 ESI:0000000A EDI:0000211E EBP:00007BD8 ESP:00007BC2 DS:F600 ES:1688 FS:0000 GS:0000 SS:3E00 CF:0 ZF:0 SF:0 OF:0 AF:0 PF:0 IF:1
165E:000001BF  jc   000001B5 ($-c)             (up)                   EAX:00000000 EBX:00000816 ECX:00007FEA EDX:00000000 ESI:0000000A EDI:0000211E EBP:00007BD8 ESP:00007BC2 DS:F600 ES:1688 FS:0000 GS:0000 SS:3E00 CF:1 ZF:0 SF:1 OF:0 AF:1 PF:0 IF:1
165E:000001B5  lodsw                                                  EAX:00000000 EBX:00000816 ECX:00007FEA EDX:00000000 ESI:0000000A EDI:0000211E EBP:00007BD8 ESP:00007BC2 DS:F600 ES:1688 FS:0000 GS:0000 SS:3E00 CF:1 ZF:0 SF:1 OF:0 AF:1 PF:0 IF:1
165E:000001B6  xor  es:[bx],ax                 es:[0816]=290D         EAX:00000000 EBX:00000816 ECX:00007FEA EDX:00000000 ESI:0000000C EDI:0000211E EBP:00007BD8 ESP:00007BC2 DS:F600 ES:1688 FS:0000 GS:0000 SS:3E00 CF:1 ZF:0 SF:1 OF:0 AF:1 PF:0 IF:1
165E:000001B9  inc  bx                                                EAX:00000000 EBX:00000816 ECX:00007FEA EDX:00000000 ESI:0000000C EDI:0000211E EBP:00007BD8 ESP:00007BC2 DS:F600 ES:1688 FS:0000 GS:0000 SS:3E00 CF:0 ZF:0 SF:0 OF:0 AF:0 PF:0 IF:1
165E:000001BA  inc  bx                                                EAX:00000000 EBX:00000817 ECX:00007FEA EDX:00000000 ESI:0000000C EDI:0000211E EBP:00007BD8 ESP:00007BC2 DS:F600 ES:1688 FS:0000 GS:0000 SS:3E00 CF:0 ZF:0 SF:0 OF:0 AF:0 PF:1 IF:1
165E:000001BB  cmp  bx,0B19                                           EAX:00000000 EBX:00000818 ECX:00007FEA EDX:00000000 ESI:0000000C EDI:0000211E EBP:00007BD8 ESP:00007BC2 DS:F600 ES:1688 FS:0000 GS:0000 SS:3E00 CF:0 ZF:0 SF:0 OF:0 AF:0 PF:1 IF:1
165E:000001BF  jc   000001B5 ($-c)             (up)                   EAX:00000000 EBX:00000818 ECX:00007FEA EDX:00000000 ESI:0000000C EDI:0000211E EBP:00007BD8 ESP:00007BC2 DS:F600 ES:1688 FS:0000 GS:0000 SS:3E00 CF:1 ZF:0 SF:1 OF:0 AF:1 PF:1 IF:1
165E:000001B5  lodsw                                                  EAX:00000000 EBX:00000818 ECX:00007FEA EDX:00000000 ESI:0000000C EDI:0000211E EBP:00007BD8 ESP:00007BC2 DS:F600 ES:1688 FS:0000 GS:0000 SS:3E00 CF:1 ZF:0 SF:1 OF:0 AF:1 PF:1 IF:1
165E:000001B6  xor  es:[bx],ax                 es:[0818]=4CAE         EAX:00000000 EBX:00000818 ECX:00007FEA EDX:00000000 ESI:0000000E EDI:0000211E EBP:00007BD8 ESP:00007BC2 DS:F600 ES:1688 FS:0000 GS:0000 SS:3E00 CF:1 ZF:0 SF:1 OF:0 AF:1 PF:1 IF:1
165E:000001B9  inc  bx                                                EAX:00000000 EBX:00000818 ECX:00007FEA EDX:00000000 ESI:0000000E EDI:0000211E EBP:00007BD8 ESP:00007BC2 DS:F600 ES:1688 FS:0000 GS:0000 SS:3E00 CF:0 ZF:0 SF:0 OF:0 AF:0 PF:0 IF:1
165E:000001BA  inc  bx                                                EAX:00000000 EBX:00000819 ECX:00007FEA EDX:00000000 ESI:0000000E EDI:0000211E EBP:00007BD8 ESP:00007BC2 DS:F600 ES:1688 FS:0000 GS:0000 SS:3E00 CF:0 ZF:0 SF:0 OF:0 AF:0 PF:0 IF:1
165E:000001BB  cmp  bx,0B19                                           EAX:00000000 EBX:0000081A ECX:00007FEA EDX:00000000 ESI:0000000E EDI:0000211E EBP:00007BD8 ESP:00007BC2 DS:F600 ES:1688 FS:0000 GS:0000 SS:3E00 CF:0 ZF:0 SF:0 OF:0 AF:0 PF:0 IF:1
165E:000001BF  jc   000001B5 ($-c)             (up)                   EAX:00000000 EBX:0000081A ECX:00007FEA EDX:00000000 ESI:0000000E EDI:0000211E EBP:00007BD8 ESP:00007BC2 DS:F600 ES:1688 FS:0000 GS:0000 SS:3E00 CF:1 ZF:0 SF:1 OF:0 AF:0 PF:0 IF:1
165E:000001B5  lodsw                                                  EAX:00000000 EBX:0000081A ECX:00007FEA EDX:00000000 ESI:0000000E EDI:0000211E EBP:00007BD8 ESP:00007BC2 DS:F600 ES:1688 FS:0000 GS:0000 SS:3E00 CF:1 ZF:0 SF:1 OF:0 AF:0 PF:0 IF:1
165E:000001B6  xor  es:[bx],ax                 es:[081A]=EE11         EAX:00000000 EBX:0000081A ECX:00007FEA EDX:00000000 ESI:00000010 EDI:0000211E EBP:00007BD8 ESP:00007BC2 DS:F600 ES:1688 FS:0000 GS:0000 SS:3E00 CF:1 ZF:0 SF:1 OF:0 AF:0 PF:0 IF:1
165E:000001B9  inc  bx                                                EAX:00000000 EBX:0000081A ECX:00007FEA EDX:00000000 ESI:00000010 EDI:0000211E EBP:00007BD8 ESP:00007BC2 DS:F600 ES:1688 FS:0000 GS:0000 SS:3E00 CF:0 ZF:0 SF:1 OF:0 AF:0 PF:1 IF:1
165E:000001BA  inc  bx                                                EAX:00000000 EBX:0000081B ECX:00007FEA EDX:00000000 ESI:00000010 EDI:0000211E EBP:00007BD8 ESP:00007BC2 DS:F600 ES:1688 FS:0000 GS:0000 SS:3E00 CF:0 ZF:0 SF:0 OF:0 AF:0 PF:1 IF:1
165E:000001BB  cmp  bx,0B19                                           EAX:00000000 EBX:0000081C ECX:00007FEA EDX:00000000 ESI:00000010 EDI:0000211E EBP:00007BD8 ESP:00007BC2 DS:F600 ES:1688 FS:0000 GS:0000 SS:3E00 CF:0 ZF:0 SF:0 OF:0 AF:0 PF:0 IF:1
165E:000001BF  jc   000001B5 ($-c)             (up)                   EAX:00000000 EBX:0000081C ECX:00007FEA EDX:00000000 ESI:00000010 EDI:0000211E EBP:00007BD8 ESP:00007BC2 DS:F600 ES:1688 FS:0000 GS:0000 SS:3E00 CF:1 ZF:0 SF:1 OF:0 AF:0 PF:1 IF:1
165E:000001B5  lodsw                                                  EAX:00000000 EBX:0000081C ECX:00007FEA EDX:00000000 ESI:00000010 EDI:0000211E EBP:00007BD8 ESP:00007BC2 DS:F600 ES:1688 FS:0000 GS:0000 SS:3E00 CF:1 ZF:0 SF:1 OF:0 AF:0 PF:1 IF:1
165E:000001B6  xor  es:[bx],ax                 es:[081C]=B02C         EAX:00000000 EBX:0000081C ECX:00007FEA EDX:00000000 ESI:00000012 EDI:0000211E EBP:00007BD8 ESP:00007BC2 DS:F600 ES:1688 FS:0000 GS:0000 SS:3E00 CF:1 ZF:0 SF:1 OF:0 AF:0 PF:1 IF:1
165E:000001B9  inc  bx                                                EAX:00000000 EBX:0000081C ECX:00007FEA EDX:00000000 ESI:00000012 EDI:0000211E EBP:00007BD8 ESP:00007BC2 DS:F600 ES:1688 FS:0000 GS:0000 SS:3E00 CF:0 ZF:0 SF:1 OF:0 AF:0 PF:0 IF:1
165E:000001BA  inc  bx                                                EAX:00000000 EBX:0000081D ECX:00007FEA EDX:00000000 ESI:00000012 EDI:0000211E EBP:00007BD8 ESP:00007BC2 DS:F600 ES:1688 FS:0000 GS:0000 SS:3E00 CF:0 ZF:0 SF:0 OF:0 AF:0 PF:1 IF:1
165E:000001BB  cmp  bx,0B19                                           EAX:00000000 EBX:0000081E ECX:00007FEA EDX:00000000 ESI:00000012 EDI:0000211E EBP:00007BD8 ESP:00007BC2 DS:F600 ES:1688 FS:0000 GS:0000 SS:3E00 CF:0 ZF:0 SF:0 OF:0 AF:0 PF:1 IF:1
165E:000001BF  jc   000001B5 ($-c)             (up)                   EAX:00000000 EBX:0000081E ECX:00007FEA EDX:00000000 ESI:00000012 EDI:0000211E EBP:00007BD8 ESP:00007BC2 DS:F600 ES:1688 FS:0000 GS:0000 SS:3E00 CF:1 ZF:0 SF:1 OF:0 AF:0 PF:1 IF:1
165E:000001B5  lodsw                                                  EAX:00000000 EBX:0000081E ECX:00007FEA EDX:00000000 ESI:00000012 EDI:0000211E EBP:00007BD8 ESP:00007BC2 DS:F600 ES:1688 FS:0000 GS:0000 SS:3E00 CF:1 ZF:0 SF:1 OF:0 AF:0 PF:1 IF:1
165E:000001B6  xor  es:[bx],ax                 es:[081E]=7F08         EAX:00000000 EBX:0000081E ECX:00007FEA EDX:00000000 ESI:00000014 EDI:0000211E EBP:00007BD8 ESP:00007BC2 DS:F600 ES:1688 FS:0000 GS:0000 SS:3E00 CF:1 ZF:0 SF:1 OF:0 AF:0 PF:1 IF:1
165E:000001B9  inc  bx                                                EAX:00000000 EBX:0000081E ECX:00007FEA EDX:00000000 ESI:00000014 EDI:0000211E EBP:00007BD8 ESP:00007BC2 DS:F600 ES:1688 FS:0000 GS:0000 SS:3E00 CF:0 ZF:0 SF:0 OF:0 AF:0 PF:0 IF:1
165E:000001BA  inc  bx                                                EAX:00000000 EBX:0000081F ECX:00007FEA EDX:00000000 ESI:00000014 EDI:0000211E EBP:00007BD8 ESP:00007BC2 DS:F600 ES:1688 FS:0000 GS:0000 SS:3E00 CF:0 ZF:0 SF:0 OF:0 AF:0 PF:0 IF:1
165E:000001BB  cmp  bx,0B19                                           EAX:00000000 EBX:00000820 ECX:00007FEA EDX:00000000 ESI:00000014 EDI:0000211E EBP:00007BD8 ESP:00007BC2 DS:F600 ES:1688 FS:0000 GS:0000 SS:3E00 CF:0 ZF:0 SF:0 OF:0 AF:1 PF:0 IF:1
165E:000001BF  jc   000001B5 ($-c)             (up)                   EAX:00000000 EBX:00000820 ECX:00007FEA EDX:00000000 ESI:00000014 EDI:0000211E EBP:00007BD8 ESP:00007BC2 DS:F600 ES:1688 FS:0000 GS:0000 SS:3E00 CF:1 ZF:0 SF:1 OF:0 AF:1 PF:0 IF:1
165E:000001B5  lodsw                                                  EAX:00000000 EBX:00000820 ECX:00007FEA EDX:00000000 ESI:00000014 EDI:0000211E EBP:00007BD8 ESP:00007BC2 DS:F600 ES:1688 FS:0000 GS:0000 SS:3E00 CF:1 ZF:0 SF:1 OF:0 AF:1 PF:0 IF:1
165E:000001B6  xor  es:[bx],ax                 es:[0820]=FE25         EAX:00000000 EBX:00000820 ECX:00007FEA EDX:00000000 ESI:00000016 EDI:0000211E EBP:00007BD8 ESP:00007BC2 DS:F600 ES:1688 FS:0000 GS:0000 SS:3E00 CF:1 ZF:0 SF:1 OF:0 AF:1 PF:0 IF:1
165E:000001B9  inc  bx                                                EAX:00000000 EBX:00000820 ECX:00007FEA EDX:00000000 ESI:00000016 EDI:0000211E EBP:00007BD8 ESP:00007BC2 DS:F600 ES:1688 FS:0000 GS:0000 SS:3E00 CF:0 ZF:0 SF:1 OF:0 AF:0 PF:0 IF:1
165E:000001BA  inc  bx                                                EAX:00000000 EBX:00000821 ECX:00007FEA EDX:00000000 ESI:00000016 EDI:0000211E EBP:00007BD8 ESP:00007BC2 DS:F600 ES:1688 FS:0000 GS:0000 SS:3E00 CF:0 ZF:0 SF:0 OF:0 AF:0 PF:1 IF:1
165E:000001BB  cmp  bx,0B19                                           EAX:00000000 EBX:00000822 ECX:00007FEA EDX:00000000 ESI:00000016 EDI:0000211E EBP:00007BD8 ESP:00007BC2 DS:F600 ES:1688 FS:0000 GS:0000 SS:3E00 CF:0 ZF:0 SF:0 OF:0 AF:0 PF:1 IF:1
165E:000001BF  jc   000001B5 ($-c)             (up)                   EAX:00000000 EBX:00000822 ECX:00007FEA EDX:00000000 ESI:00000016 EDI:0000211E EBP:00007BD8 ESP:00007BC2 DS:F600 ES:1688 FS:0000 GS:0000 SS:3E00 CF:1 ZF:0 SF:1 OF:0 AF:1 PF:1 IF:1
165E:000001B5  lodsw                                                  EAX:00000000 EBX:00000822 ECX:00007FEA EDX:00000000 ESI:00000016 EDI:0000211E EBP:00007BD8 ESP:00007BC2 DS:F600 ES:1688 FS:0000 GS:0000 SS:3E00 CF:1 ZF:0 SF:1 OF:0 AF:1 PF:1 IF:1
165E:000001B6  xor  es:[bx],ax                 es:[0822]=2D49         EAX:00000000 EBX:00000822 ECX:00007FEA EDX:00000000 ESI:00000018 EDI:0000211E EBP:00007BD8 ESP:00007BC2 DS:F600 ES:1688 FS:0000 GS:0000 SS:3E00 CF:1 ZF:0 SF:1 OF:0 AF:1 PF:1 IF:1
165E:000001B9  inc  bx                                                EAX:00000000 EBX:00000822 ECX:00007FEA EDX:00000000 ESI:00000018 EDI:0000211E EBP:00007BD8 ESP:00007BC2 DS:F600 ES:1688 FS:0000 GS:0000 SS:3E00 CF:0 ZF:0 SF:0 OF:0 AF:0 PF:0 IF:1
165E:000001BA  inc  bx                                                EAX:00000000 EBX:00000823 ECX:00007FEA EDX:00000000 ESI:00000018 EDI:0000211E EBP:00007BD8 ESP:00007BC2 DS:F600 ES:1688 FS:0000 GS:0000 SS:3E00 CF:0 ZF:0 SF:0 OF:0 AF:0 PF:0 IF:1
165E:000001BB  cmp  bx,0B19                                           EAX:00000000 EBX:00000824 ECX:00007FEA EDX:00000000 ESI:00000018 EDI:0000211E EBP:00007BD8 ESP:00007BC2 DS:F600 ES:1688 FS:0000 GS:0000 SS:3E00 CF:0 ZF:0 SF:0 OF:0 AF:0 PF:1 IF:1
165E:000001BF  jc   000001B5 ($-c)             (up)                   EAX:00000000 EBX:00000824 ECX:00007FEA EDX:00000000 ESI:00000018 EDI:0000211E EBP:00007BD8 ESP:00007BC2 DS:F600 ES:1688 FS:0000 GS:0000 SS:3E00 CF:1 ZF:0 SF:1 OF:0 AF:1 PF:0 IF:1
165E:000001B5  lodsw                                                  EAX:00000000 EBX:00000824 ECX:00007FEA EDX:00000000 ESI:00000018 EDI:0000211E EBP:00007BD8 ESP:00007BC2 DS:F600 ES:1688 FS:0000 GS:0000 SS:3E00 CF:1 ZF:0 SF:1 OF:0 AF:1 PF:0 IF:1
165E:000001B6  xor  es:[bx],ax                 es:[0824]=FF41         EAX:00000000 EBX:00000824 ECX:00007FEA EDX:00000000 ESI:0000001A EDI:0000211E EBP:00007BD8 ESP:00007BC2 DS:F600 ES:1688 FS:0000 GS:0000 SS:3E00 CF:1 ZF:0 SF:1 OF:0 AF:1 PF:0 IF:1
165E:000001B9  inc  bx                                                EAX:00000000 EBX:00000824 ECX:00007FEA EDX:00000000 ESI:0000001A EDI:0000211E EBP:00007BD8 ESP:00007BC2 DS:F600 ES:1688 FS:0000 GS:0000 SS:3E00 CF:0 ZF:0 SF:1 OF:0 AF:0 PF:1 IF:1
165E:000001BA  inc  bx                                                EAX:00000000 EBX:00000825 ECX:00007FEA EDX:00000000 ESI:0000001A EDI:0000211E EBP:00007BD8 ESP:00007BC2 DS:F600 ES:1688 FS:0000 GS:0000 SS:3E00 CF:0 ZF:0 SF:0 OF:0 AF:0 PF:0 IF:1
165E:000001BB  cmp  bx,0B19                                           EAX:00000000 EBX:00000826 ECX:00007FEA EDX:00000000 ESI:0000001A EDI:0000211E EBP:00007BD8 ESP:00007BC2 DS:F600 ES:1688 FS:0000 GS:0000 SS:3E00 CF:0 ZF:0 SF:0 OF:0 AF:0 PF:0 IF:1
165E:000001BF  jc   000001B5 ($-c)             (up)                   EAX:00000000 EBX:00000826 ECX:00007FEA EDX:00000000 ESI:0000001A EDI:0000211E EBP:00007BD8 ESP:00007BC2 DS:F600 ES:1688 FS:0000 GS:0000 SS:3E00 CF:1 ZF:0 SF:1 OF:0 AF:1 PF:0 IF:1
165E:000001B5  lodsw                                                  EAX:00000000 EBX:00000826 ECX:00007FEA EDX:00000000 ESI:0000001A EDI:0000211E EBP:00007BD8 ESP:00007BC2 DS:F600 ES:1688 FS:0000 GS:0000 SS:3E00 CF:1 ZF:0 SF:1 OF:0 AF:1 PF:0 IF:1
165E:000001B6  xor  es:[bx],ax                 es:[0826]=3FF4         EAX:00000000 EBX:00000826 ECX:00007FEA EDX:00000000 ESI:0000001C EDI:0000211E EBP:00007BD8 ESP:00007BC2 DS:F600 ES:1688 FS:0000 GS:0000 SS:3E00 CF:1 ZF:0 SF:1 OF:0 AF:1 PF:0 IF:1
165E:000001B9  inc  bx                                                EAX:00000000 EBX:00000826 ECX:00007FEA EDX:00000000 ESI:0000001C EDI:0000211E EBP:00007BD8 ESP:00007BC2 DS:F600 ES:1688 FS:0000 GS:0000 SS:3E00 CF:0 ZF:0 SF:0 OF:0 AF:0 PF:0 IF:1
165E:000001BA  inc  bx                                                EAX:00000000 EBX:00000827 ECX:00007FEA EDX:00000000 ESI:0000001C EDI:0000211E EBP:00007BD8 ESP:00007BC2 DS:F600 ES:1688 FS:0000 GS:0000 SS:3E00 CF:0 ZF:0 SF:0 OF:0 AF:0 PF:1 IF:1
165E:000001BB  cmp  bx,0B19                                           EAX:00000000 EBX:00000828 ECX:00007FEA EDX:00000000 ESI:0000001C EDI:0000211E EBP:00007BD8 ESP:00007BC2 DS:F600 ES:1688 FS:0000 GS:0000 SS:3E00 CF:0 ZF:0 SF:0 OF:0 AF:0 PF:1 IF:1
165E:000001BF  jc   000001B5 ($-c)             (up)                   EAX:00000000 EBX:00000828 ECX:00007FEA EDX:00000000 ESI:0000001C EDI:0000211E EBP:00007BD8 ESP:00007BC2 DS:F600 ES:1688 FS:0000 GS:0000 SS:3E00 CF:1 ZF:0 SF:1 OF:0 AF:1 PF:1 IF:1
165E:000001B5  lodsw                                                  EAX:00000000 EBX:00000828 ECX:00007FEA EDX:00000000 ESI:0000001C EDI:0000211E EBP:00007BD8 ESP:00007BC2 DS:F600 ES:1688 FS:0000 GS:0000 SS:3E00 CF:1 ZF:0 SF:1 OF:0 AF:1 PF:1 IF:1
165E:000001B6  xor  es:[bx],ax                 es:[0828]=883D         EAX:00000000 EBX:00000828 ECX:00007FEA EDX:00000000 ESI:0000001E EDI:0000211E EBP:00007BD8 ESP:00007BC2 DS:F600 ES:1688 FS:0000 GS:0000 SS:3E00 CF:1 ZF:0 SF:1 OF:0 AF:1 PF:1 IF:1
165E:000001B9  inc  bx                                                EAX:00000000 EBX:00000828 ECX:00007FEA EDX:00000000 ESI:0000001E EDI:0000211E EBP:00007BD8 ESP:00007BC2 DS:F600 ES:1688 FS:0000 GS:0000 SS:3E00 CF:0 ZF:0 SF:1 OF:0 AF:0 PF:0 IF:1
165E:000001BA  inc  bx                                                EAX:00000000 EBX:00000829 ECX:00007FEA EDX:00000000 ESI:0000001E EDI:0000211E EBP:00007BD8 ESP:00007BC2 DS:F600 ES:1688 FS:0000 GS:0000 SS:3E00 CF:0 ZF:0 SF:0 OF:0 AF:0 PF:0 IF:1
165E:000001BB  cmp  bx,0B19                                           EAX:00000000 EBX:0000082A ECX:00007FEA EDX:00000000 ESI:0000001E EDI:0000211E EBP:00007BD8 ESP:00007BC2 DS:F600 ES:1688 FS:0000 GS:0000 SS:3E00 CF:0 ZF:0 SF:0 OF:0 AF:0 PF:0 IF:1
165E:000001BF  jc   000001B5 ($-c)             (up)                   EAX:00000000 EBX:0000082A ECX:00007FEA EDX:00000000 ESI:0000001E EDI:0000211E EBP:00007BD8 ESP:00007BC2 DS:F600 ES:1688 FS:0000 GS:0000 SS:3E00 CF:1 ZF:0 SF:1 OF:0 AF:0 PF:1 IF:1
165E:000001B5  lodsw                                                  EAX:00000000 EBX:0000082A ECX:00007FEA EDX:00000000 ESI:0000001E EDI:0000211E EBP:00007BD8 ESP:00007BC2 DS:F600 ES:1688 FS:0000 GS:0000 SS:3E00 CF:1 ZF:0 SF:1 OF:0 AF:0 PF:1 IF:1
165E:000001B6  xor  es:[bx],ax                 es:[082A]=03C6         EAX:00000000 EBX:0000082A ECX:00007FEA EDX:00000000 ESI:00000020 EDI:0000211E EBP:00007BD8 ESP:00007BC2 DS:F600 ES:1688 FS:0000 GS:0000 SS:3E00 CF:1 ZF:0 SF:1 OF:0 AF:0 PF:1 IF:1
165E:000001B9  inc  bx                                                EAX:00000000 EBX:0000082A ECX:00007FEA EDX:00000000 ESI:00000020 EDI:0000211E EBP:00007BD8 ESP:00007BC2 DS:F600 ES:1688 FS:0000 GS:0000 SS:3E00 CF:0 ZF:0 SF:0 OF:0 AF:0 PF:1 IF:1
165E:000001BA  inc  bx                                                EAX:00000000 EBX:0000082B ECX:00007FEA EDX:00000000 ESI:00000020 EDI:0000211E EBP:00007BD8 ESP:00007BC2 DS:F600 ES:1688 FS:0000 GS:0000 SS:3E00 CF:0 ZF:0 SF:0 OF:0 AF:0 PF:1 IF:1
165E:000001BB  cmp  bx,0B19                                           EAX:00000000 EBX:0000082C ECX:00007FEA EDX:00000000 ESI:00000020 EDI:0000211E EBP:00007BD8 ESP:00007BC2 DS:F600 ES:1688 FS:0000 GS:0000 SS:3E00 CF:0 ZF:0 SF:0 OF:0 AF:0 PF:0 IF:1
165E:000001BF  jc   000001B5 ($-c)             (up)                   EAX:00000000 EBX:0000082C ECX:00007FEA EDX:00000000 ESI:00000020 EDI:0000211E EBP:00007BD8 ESP:00007BC2 DS:F600 ES:1688 FS:0000 GS:0000 SS:3E00 CF:1 ZF:0 SF:1 OF:0 AF:0 PF:0 IF:1
165E:000001B5  lodsw                                                  EAX:00000000 EBX:0000082C ECX:00007FEA EDX:00000000 ESI:00000020 EDI:0000211E EBP:00007BD8 ESP:00007BC2 DS:F600 ES:1688 FS:0000 GS:0000 SS:3E00 CF:1 ZF:0 SF:1 OF:0 AF:0 PF:0 IF:1
165E:000001B6  xor  es:[bx],ax                 es:[082C]=FD45         EAX:00000000 EBX:0000082C ECX:00007FEA EDX:00000000 ESI:00000022 EDI:0000211E EBP:00007BD8 ESP:00007BC2 DS:F600 ES:1688 FS:0000 GS:0000 SS:3E00 CF:1 ZF:0 SF:1 OF:0 AF:0 PF:0 IF:1
165E:000001B9  inc  bx                                                EAX:00000000 EBX:0000082C ECX:00007FEA EDX:00000000 ESI:00000022 EDI:0000211E EBP:00007BD8 ESP:00007BC2 DS:F600 ES:1688 FS:0000 GS:0000 SS:3E00 CF:0 ZF:0 SF:1 OF:0 AF:0 PF:0 IF:1
165E:000001BA  inc  bx                                                EAX:00000000 EBX:0000082D ECX:00007FEA EDX:00000000 ESI:00000022 EDI:0000211E EBP:00007BD8 ESP:00007BC2 DS:F600 ES:1688 FS:0000 GS:0000 SS:3E00 CF:0 ZF:0 SF:0 OF:0 AF:0 PF:1 IF:1
165E:000001BB  cmp  bx,0B19                                           EAX:00000000 EBX:0000082E ECX:00007FEA EDX:00000000 ESI:00000022 EDI:0000211E EBP:00007BD8 ESP:00007BC2 DS:F600 ES:1688 FS:0000 GS:0000 SS:3E00 CF:0 ZF:0 SF:0 OF:0 AF:0 PF:1 IF:1
165E:000001BF  jc   000001B5 ($-c)             (up)                   EAX:00000000 EBX:0000082E ECX:00007FEA EDX:00000000 ESI:00000022 EDI:0000211E EBP:00007BD8 ESP:00007BC2 DS:F600 ES:1688 FS:0000 GS:0000 SS:3E00 CF:1 ZF:0 SF:1 OF:0 AF:0 PF:0 IF:1
165E:000001B5  lodsw                                                  EAX:00000000 EBX:0000082E ECX:00007FEA EDX:00000000 ESI:00000022 EDI:0000211E EBP:00007BD8 ESP:00007BC2 DS:F600 ES:1688 FS:0000 GS:0000 SS:3E00 CF:1 ZF:0 SF:1 OF:0 AF:0 PF:0 IF:1
165E:000001B6  xor  es:[bx],ax                 es:[082E]=0CEB         EAX:00000000 EBX:0000082E ECX:00007FEA EDX:00000000 ESI:00000024 EDI:0000211E EBP:00007BD8 ESP:00007BC2 DS:F600 ES:1688 FS:0000 GS:0000 SS:3E00 CF:1 ZF:0 SF:1 OF:0 AF:0 PF:0 IF:1
165E:000001B9  inc  bx                                                EAX:00000000 EBX:0000082E ECX:00007FEA EDX:00000000 ESI:00000024 EDI:0000211E EBP:00007BD8 ESP:00007BC2 DS:F600 ES:1688 FS:0000 GS:0000 SS:3E00 CF:0 ZF:0 SF:0 OF:0 AF:0 PF:1 IF:1
165E:000001BA  inc  bx                                                EAX:00000000 EBX:0000082F ECX:00007FEA EDX:00000000 ESI:00000024 EDI:0000211E EBP:00007BD8 ESP:00007BC2 DS:F600 ES:1688 FS:0000 GS:0000 SS:3E00 CF:0 ZF:0 SF:0 OF:0 AF:0 PF:0 IF:1
165E:000001BB  cmp  bx,0B19                                           EAX:00000000 EBX:00000830 ECX:00007FEA EDX:00000000 ESI:00000024 EDI:0000211E EBP:00007BD8 ESP:00007BC2 DS:F600 ES:1688 FS:0000 GS:0000 SS:3E00 CF:0 ZF:0 SF:0 OF:0 AF:1 PF:1 IF:1
165E:000001BF  jc   000001B5 ($-c)             (up)                   EAX:00000000 EBX:00000830 ECX:00007FEA EDX:00000000 ESI:00000024 EDI:0000211E EBP:00007BD8 ESP:00007BC2 DS:F600 ES:1688 FS:0000 GS:0000 SS:3E00 CF:1 ZF:0 SF:1 OF:0 AF:1 PF:1 IF:1
165E:000001B5  lodsw                                                  EAX:00000000 EBX:00000830 ECX:00007FEA EDX:00000000 ESI:00000024 EDI:0000211E EBP:00007BD8 ESP:00007BC2 DS:F600 ES:1688 FS:0000 GS:0000 SS:3E00 CF:1 ZF:0 SF:1 OF:0 AF:1 PF:1 IF:1
165E:000001B6  xor  es:[bx],ax                 es:[0830]=3B3D         EAX:00000000 EBX:00000830 ECX:00007FEA EDX:00000000 ESI:00000026 EDI:0000211E EBP:00007BD8 ESP:00007BC2 DS:F600 ES:1688 FS:0000 GS:0000 SS:3E00 CF:1 ZF:0 SF:1 OF:0 AF:1 PF:1 IF:1
165E:000001B9  inc  bx                                                EAX:00000000 EBX:00000830 ECX:00007FEA EDX:00000000 ESI:00000026 EDI:0000211E EBP:00007BD8 ESP:00007BC2 DS:F600 ES:1688 FS:0000 GS:0000 SS:3E00 CF:0 ZF:0 SF:0 OF:0 AF:0 PF:0 IF:1
165E:000001BA  inc  bx                                                EAX:00000000 EBX:00000831 ECX:00007FEA EDX:00000000 ESI:00000026 EDI:0000211E EBP:00007BD8 ESP:00007BC2 DS:F600 ES:1688 FS:0000 GS:0000 SS:3E00 CF:0 ZF:0 SF:0 OF:0 AF:0 PF:0 IF:1
165E:000001BB  cmp  bx,0B19                                           EAX:00000000 EBX:00000832 ECX:00007FEA EDX:00000000 ESI:00000026 EDI:0000211E EBP:00007BD8 ESP:00007BC2 DS:F600 ES:1688 FS:0000 GS:0000 SS:3E00 CF:0 ZF:0 SF:0 OF:0 AF:0 PF:0 IF:1
165E:000001BF  jc   000001B5 ($-c)             (up)                   EAX:00000000 EBX:00000832 ECX:00007FEA EDX:00000000 ESI:00000026 EDI:0000211E EBP:00007BD8 ESP:00007BC2 DS:F600 ES:1688 FS:0000 GS:0000 SS:3E00 CF:1 ZF:0 SF:1 OF:0 AF:1 PF:0 IF:1
165E:000001B5  lodsw                                                  EAX:00000000 EBX:00000832 ECX:00007FEA EDX:00000000 ESI:00000026 EDI:0000211E EBP:00007BD8 ESP:00007BC2 DS:F600 ES:1688 FS:0000 GS:0000 SS:3E00 CF:1 ZF:0 SF:1 OF:0 AF:1 PF:0 IF:1
165E:000001B6  xor  es:[bx],ax                 es:[0832]=E62E         EAX:00000000 EBX:00000832 ECX:00007FEA EDX:00000000 ESI:00000028 EDI:0000211E EBP:00007BD8 ESP:00007BC2 DS:F600 ES:1688 FS:0000 GS:0000 SS:3E00 CF:1 ZF:0 SF:1 OF:0 AF:1 PF:0 IF:1
165E:000001B9  inc  bx                                                EAX:00000000 EBX:00000832 ECX:00007FEA EDX:00000000 ESI:00000028 EDI:0000211E EBP:00007BD8 ESP:00007BC2 DS:F600 ES:1688 FS:0000 GS:0000 SS:3E00 CF:0 ZF:0 SF:1 OF:0 AF:0 PF:1 IF:1
165E:000001BA  inc  bx                                                EAX:00000000 EBX:00000833 ECX:00007FEA EDX:00000000 ESI:00000028 EDI:0000211E EBP:00007BD8 ESP:00007BC2 DS:F600 ES:1688 FS:0000 GS:0000 SS:3E00 CF:0 ZF:0 SF:0 OF:0 AF:0 PF:1 IF:1
165E:000001BB  cmp  bx,0B19                                           EAX:00000000 EBX:00000834 ECX:00007FEA EDX:00000000 ESI:00000028 EDI:0000211E EBP:00007BD8 ESP:00007BC2 DS:F600 ES:1688 FS:0000 GS:0000 SS:3E00 CF:0 ZF:0 SF:0 OF:0 AF:0 PF:0 IF:1
165E:000001BF  jc   000001B5 ($-c)             (up)                   EAX:00000000 EBX:00000834 ECX:00007FEA EDX:00000000 ESI:00000028 EDI:0000211E EBP:00007BD8 ESP:00007BC2 DS:F600 ES:1688 FS:0000 GS:0000 SS:3E00 CF:1 ZF:0 SF:1 OF:0 AF:1 PF:1 IF:1
165E:000001B5  lodsw                                                  EAX:00000000 EBX:00000834 ECX:00007FEA EDX:00000000 ESI:00000028 EDI:0000211E EBP:00007BD8 ESP:00007BC2 DS:F600 ES:1688 FS:0000 GS:0000 SS:3E00 CF:1 ZF:0 SF:1 OF:0 AF:1 PF:1 IF:1
165E:000001B6  xor  es:[bx],ax                 es:[0834]=E327         EAX:00000000 EBX:00000834 ECX:00007FEA EDX:00000000 ESI:0000002A EDI:0000211E EBP:00007BD8 ESP:00007BC2 DS:F600 ES:1688 FS:0000 GS:0000 SS:3E00 CF:1 ZF:0 SF:1 OF:0 AF:1 PF:1 IF:1
165E:000001B9  inc  bx                                                EAX:00000000 EBX:00000834 ECX:00007FEA EDX:00000000 ESI:0000002A EDI:0000211E EBP:00007BD8 ESP:00007BC2 DS:F600 ES:1688 FS:0000 GS:0000 SS:3E00 CF:0 ZF:0 SF:1 OF:0 AF:0 PF:1 IF:1
165E:000001BA  inc  bx                                                EAX:00000000 EBX:00000835 ECX:00007FEA EDX:00000000 ESI:0000002A EDI:0000211E EBP:00007BD8 ESP:00007BC2 DS:F600 ES:1688 FS:0000 GS:0000 SS:3E00 CF:0 ZF:0 SF:0 OF:0 AF:0 PF:1 IF:1
165E:000001BB  cmp  bx,0B19                                           EAX:00000000 EBX:00000836 ECX:00007FEA EDX:00000000 ESI:0000002A EDI:0000211E EBP:00007BD8 ESP:00007BC2 DS:F600 ES:1688 FS:0000 GS:0000 SS:3E00 CF:0 ZF:0 SF:0 OF:0 AF:0 PF:1 IF:1
165E:000001BF  jc   000001B5 ($-c)             (up)                   EAX:00000000 EBX:00000836 ECX:00007FEA EDX:00000000 ESI:0000002A EDI:0000211E EBP:00007BD8 ESP:00007BC2 DS:F600 ES:1688 FS:0000 GS:0000 SS:3E00 CF:1 ZF:0 SF:1 OF:0 AF:1 PF:1 IF:1
165E:000001B5  lodsw                                                  EAX:00000000 EBX:00000836 ECX:00007FEA EDX:00000000 ESI:0000002A EDI:0000211E EBP:00007BD8 ESP:00007BC2 DS:F600 ES:1688 FS:0000 GS:0000 SS:3E00 CF:1 ZF:0 SF:1 OF:0 AF:1 PF:1 IF:1
165E:000001B6  xor  es:[bx],ax                 es:[0836]=D88D         EAX:00000000 EBX:00000836 ECX:00007FEA EDX:00000000 ESI:0000002C EDI:0000211E EBP:00007BD8 ESP:00007BC2 DS:F600 ES:1688 FS:0000 GS:0000 SS:3E00 CF:1 ZF:0 SF:1 OF:0 AF:1 PF:1 IF:1
165E:000001B9  inc  bx                                                EAX:00000000 EBX:00000836 ECX:00007FEA EDX:00000000 ESI:0000002C EDI:0000211E EBP:00007BD8 ESP:00007BC2 DS:F600 ES:1688 FS:0000 GS:0000 SS:3E00 CF:0 ZF:0 SF:1 OF:0 AF:0 PF:1 IF:1
165E:000001BA  inc  bx                                                EAX:00000000 EBX:00000837 ECX:00007FEA EDX:00000000 ESI:0000002C EDI:0000211E EBP:00007BD8 ESP:00007BC2 DS:F600 ES:1688 FS:0000 GS:0000 SS:3E00 CF:0 ZF:0 SF:0 OF:0 AF:0 PF:0 IF:1
165E:000001BB  cmp  bx,0B19                                           EAX:00000000 EBX:00000838 ECX:00007FEA EDX:00000000 ESI:0000002C EDI:0000211E EBP:00007BD8 ESP:00007BC2 DS:F600 ES:1688 FS:0000 GS:0000 SS:3E00 CF:0 ZF:0 SF:0 OF:0 AF:0 PF:0 IF:1
165E:000001BF  jc   000001B5 ($-c)             (up)                   EAX:00000000 EBX:00000838 ECX:00007FEA EDX:00000000 ESI:0000002C EDI:0000211E EBP:00007BD8 ESP:00007BC2 DS:F600 ES:1688 FS:0000 GS:0000 SS:3E00 CF:1 ZF:0 SF:1 OF:0 AF:1 PF:0 IF:1
165E:000001B5  lodsw                                                  EAX:00000000 EBX:00000838 ECX:00007FEA EDX:00000000 ESI:0000002C EDI:0000211E EBP:00007BD8 ESP:00007BC2 DS:F600 ES:1688 FS:0000 GS:0000 SS:3E00 CF:1 ZF:0 SF:1 OF:0 AF:1 PF:0 IF:1
165E:000001B6  xor  es:[bx],ax                 es:[0838]=5ED6         EAX:00000000 EBX:00000838 ECX:00007FEA EDX:00000000 ESI:0000002E EDI:0000211E EBP:00007BD8 ESP:00007BC2 DS:F600 ES:1688 FS:0000 GS:0000 SS:3E00 CF:1 ZF:0 SF:1 OF:0 AF:1 PF:0 IF:1
165E:000001B9  inc  bx                                                EAX:00000000 EBX:00000838 ECX:00007FEA EDX:00000000 ESI:0000002E EDI:0000211E EBP:00007BD8 ESP:00007BC2 DS:F600 ES:1688 FS:0000 GS:0000 SS:3E00 CF:0 ZF:0 SF:0 OF:0 AF:0 PF:0 IF:1
165E:000001BA  inc  bx                                                EAX:00000000 EBX:00000839 ECX:00007FEA EDX:00000000 ESI:0000002E EDI:0000211E EBP:00007BD8 ESP:00007BC2 DS:F600 ES:1688 FS:0000 GS:0000 SS:3E00 CF:0 ZF:0 SF:0 OF:0 AF:0 PF:1 IF:1
165E:000001BB  cmp  bx,0B19                                           EAX:00000000 EBX:0000083A ECX:00007FEA EDX:00000000 ESI:0000002E EDI:0000211E EBP:00007BD8 ESP:00007BC2 DS:F600 ES:1688 FS:0000 GS:0000 SS:3E00 CF:0 ZF:0 SF:0 OF:0 AF:0 PF:1 IF:1
165E:000001BF  jc   000001B5 ($-c)             (up)                   EAX:00000000 EBX:0000083A ECX:00007FEA EDX:00000000 ESI:0000002E EDI:0000211E EBP:00007BD8 ESP:00007BC2 DS:F600 ES:1688 FS:0000 GS:0000 SS:3E00 CF:1 ZF:0 SF:1 OF:0 AF:0 PF:1 IF:1
165E:000001B5  lodsw                                                  EAX:00000000 EBX:0000083A ECX:00007FEA EDX:00000000 ESI:0000002E EDI:0000211E EBP:00007BD8 ESP:00007BC2 DS:F600 ES:1688 FS:0000 GS:0000 SS:3E00 CF:1 ZF:0 SF:1 OF:0 AF:0 PF:1 IF:1
165E:000001B6  xor  es:[bx],ax                 es:[083A]=9E16         EAX:00000000 EBX:0000083A ECX:00007FEA EDX:00000000 ESI:00000030 EDI:0000211E EBP:00007BD8 ESP:00007BC2 DS:F600 ES:1688 FS:0000 GS:0000 SS:3E00 CF:1 ZF:0 SF:1 OF:0 AF:0 PF:1 IF:1
165E:000001B9  inc  bx                                                EAX:00000000 EBX:0000083A ECX:00007FEA EDX:00000000 ESI:00000030 EDI:0000211E EBP:00007BD8 ESP:00007BC2 DS:F600 ES:1688 FS:0000 GS:0000 SS:3E00 CF:0 ZF:0 SF:1 OF:0 AF:0 PF:0 IF:1
165E:000001BA  inc  bx                                                EAX:00000000 EBX:0000083B ECX:00007FEA EDX:00000000 ESI:00000030 EDI:0000211E EBP:00007BD8 ESP:00007BC2 DS:F600 ES:1688 FS:0000 GS:0000 SS:3E00 CF:0 ZF:0 SF:0 OF:0 AF:0 PF:0 IF:1
165E:000001BB  cmp  bx,0B19                                           EAX:00000000 EBX:0000083C ECX:00007FEA EDX:00000000 ESI:00000030 EDI:0000211E EBP:00007BD8 ESP:00007BC2 DS:F600 ES:1688 FS:0000 GS:0000 SS:3E00 CF:0 ZF:0 SF:0 OF:0 AF:0 PF:1 IF:1
165E:000001BF  jc   000001B5 ($-c)             (up)                   EAX:00000000 EBX:0000083C ECX:00007FEA EDX:00000000 ESI:00000030 EDI:0000211E EBP:00007BD8 ESP:00007BC2 DS:F600 ES:1688 FS:0000 GS:0000 SS:3E00 CF:1 ZF:0 SF:1 OF:0 AF:0 PF:0 IF:1
165E:000001B5  lodsw                                                  EAX:00000000 EBX:0000083C ECX:00007FEA EDX:00000000 ESI:00000030 EDI:0000211E EBP:00007BD8 ESP:00007BC2 DS:F600 ES:1688 FS:0000 GS:0000 SS:3E00 CF:1 ZF:0 SF:1 OF:0 AF:0 PF:0 IF:1
165E:000001B6  xor  es:[bx],ax                 es:[083C]=3AF0         EAX:00000000 EBX:0000083C ECX:00007FEA EDX:00000000 ESI:00000032 EDI:0000211E EBP:00007BD8 ESP:00007BC2 DS:F600 ES:1688 FS:0000 GS:0000 SS:3E00 CF:1 ZF:0 SF:1 OF:0 AF:0 PF:0 IF:1
165E:000001B9  inc  bx                                                EAX:00000000 EBX:0000083C ECX:00007FEA EDX:00000000 ESI:00000032 EDI:0000211E EBP:00007BD8 ESP:00007BC2 DS:F600 ES:1688 FS:0000 GS:0000 SS:3E00 CF:0 ZF:0 SF:0 OF:0 AF:0 PF:1 IF:1
165E:000001BA  inc  bx                                                EAX:00000000 EBX:0000083D ECX:00007FEA EDX:00000000 ESI:00000032 EDI:0000211E EBP:00007BD8 ESP:00007BC2 DS:F600 ES:1688 FS:0000 GS:0000 SS:3E00 CF:0 ZF:0 SF:0 OF:0 AF:0 PF:0 IF:1
165E:000001BB  cmp  bx,0B19                                           EAX:00000000 EBX:0000083E ECX:00007FEA EDX:00000000 ESI:00000032 EDI:0000211E EBP:00007BD8 ESP:00007BC2 DS:F600 ES:1688 FS:0000 GS:0000 SS:3E00 CF:0 ZF:0 SF:0 OF:0 AF:0 PF:0 IF:1
165E:000001BF  jc   000001B5 ($-c)             (up)                   EAX:00000000 EBX:0000083E ECX:00007FEA EDX:00000000 ESI:00000032 EDI:0000211E EBP:00007BD8 ESP:00007BC2 DS:F600 ES:1688 FS:0000 GS:0000 SS:3E00 CF:1 ZF:0 SF:1 OF:0 AF:0 PF:0 IF:1
165E:000001B5  lodsw                                                  EAX:00000000 EBX:0000083E ECX:00007FEA EDX:00000000 ESI:00000032 EDI:0000211E EBP:00007BD8 ESP:00007BC2 DS:F600 ES:1688 FS:0000 GS:0000 SS:3E00 CF:1 ZF:0 SF:1 OF:0 AF:0 PF:0 IF:1
165E:000001B6  xor  es:[bx],ax                 es:[083E]=70E9         EAX:00000000 EBX:0000083E ECX:00007FEA EDX:00000000 ESI:00000034 EDI:0000211E EBP:00007BD8 ESP:00007BC2 DS:F600 ES:1688 FS:0000 GS:0000 SS:3E00 CF:1 ZF:0 SF:1 OF:0 AF:0 PF:0 IF:1
165E:000001B9  inc  bx                                                EAX:00000000 EBX:0000083E ECX:00007FEA EDX:00000000 ESI:00000034 EDI:0000211E EBP:00007BD8 ESP:00007BC2 DS:F600 ES:1688 FS:0000 GS:0000 SS:3E00 CF:0 ZF:0 SF:0 OF:0 AF:0 PF:0 IF:1
165E:000001BA  inc  bx                                                EAX:00000000 EBX:0000083F ECX:00007FEA EDX:00000000 ESI:00000034 EDI:0000211E EBP:00007BD8 ESP:00007BC2 DS:F600 ES:1688 FS:0000 GS:0000 SS:3E00 CF:0 ZF:0 SF:0 OF:0 AF:0 PF:1 IF:1
165E:000001BB  cmp  bx,0B19                                           EAX:00000000 EBX:00000840 ECX:00007FEA EDX:00000000 ESI:00000034 EDI:0000211E EBP:00007BD8 ESP:00007BC2 DS:F600 ES:1688 FS:0000 GS:0000 SS:3E00 CF:0 ZF:0 SF:0 OF:0 AF:1 PF:0 IF:1
165E:000001BF  jc   000001B5 ($-c)             (up)                   EAX:00000000 EBX:00000840 ECX:00007FEA EDX:00000000 ESI:00000034 EDI:0000211E EBP:00007BD8 ESP:00007BC2 DS:F600 ES:1688 FS:0000 GS:0000 SS:3E00 CF:1 ZF:0 SF:1 OF:0 AF:1 PF:1 IF:1
165E:000001B5  lodsw                                                  EAX:00000000 EBX:00000840 ECX:00007FEA EDX:00000000 ESI:00000034 EDI:0000211E EBP:00007BD8 ESP:00007BC2 DS:F600 ES:1688 FS:0000 GS:0000 SS:3E00 CF:1 ZF:0 SF:1 OF:0 AF:1 PF:1 IF:1
165E:000001B6  xor  es:[bx],ax                 es:[0840]=DB98         EAX:00000000 EBX:00000840 ECX:00007FEA EDX:00000000 ESI:00000036 EDI:0000211E EBP:00007BD8 ESP:00007BC2 DS:F600 ES:1688 FS:0000 GS:0000 SS:3E00 CF:1 ZF:0 SF:1 OF:0 AF:1 PF:1 IF:1
165E:000001B9  inc  bx                                                EAX:00000000 EBX:00000840 ECX:00007FEA EDX:00000000 ESI:00000036 EDI:0000211E EBP:00007BD8 ESP:00007BC2 DS:F600 ES:1688 FS:0000 GS:0000 SS:3E00 CF:0 ZF:0 SF:1 OF:0 AF:0 PF:0 IF:1
165E:000001BA  inc  bx                                                EAX:00000000 EBX:00000841 ECX:00007FEA EDX:00000000 ESI:00000036 EDI:0000211E EBP:00007BD8 ESP:00007BC2 DS:F600 ES:1688 FS:0000 GS:0000 SS:3E00 CF:0 ZF:0 SF:0 OF:0 AF:0 PF:1 IF:1
165E:000001BB  cmp  bx,0B19                                           EAX:00000000 EBX:00000842 ECX:00007FEA EDX:00000000 ESI:00000036 EDI:0000211E EBP:00007BD8 ESP:00007BC2 DS:F600 ES:1688 FS:0000 GS:0000 SS:3E00 CF:0 ZF:0 SF:0 OF:0 AF:0 PF:1 IF:1
165E:000001BF  jc   000001B5 ($-c)             (up)                   EAX:00000000 EBX:00000842 ECX:00007FEA EDX:00000000 ESI:00000036 EDI:0000211E EBP:00007BD8 ESP:00007BC2 DS:F600 ES:1688 FS:0000 GS:0000 SS:3E00 CF:1 ZF:0 SF:1 OF:0 AF:1 PF:0 IF:1
165E:000001B5  lodsw                                                  EAX:00000000 EBX:00000842 ECX:00007FEA EDX:00000000 ESI:00000036 EDI:0000211E EBP:00007BD8 ESP:00007BC2 DS:F600 ES:1688 FS:0000 GS:0000 SS:3E00 CF:1 ZF:0 SF:1 OF:0 AF:1 PF:0 IF:1
165E:000001B6  xor  es:[bx],ax                 es:[0842]=97A4         EAX:00000000 EBX:00000842 ECX:00007FEA EDX:00000000 ESI:00000038 EDI:0000211E EBP:00007BD8 ESP:00007BC2 DS:F600 ES:1688 FS:0000 GS:0000 SS:3E00 CF:1 ZF:0 SF:1 OF:0 AF:1 PF:0 IF:1
165E:000001B9  inc  bx                                                EAX:00000000 EBX:00000842 ECX:00007FEA EDX:00000000 ESI:00000038 EDI:0000211E EBP:00007BD8 ESP:00007BC2 DS:F600 ES:1688 FS:0000 GS:0000 SS:3E00 CF:0 ZF:0 SF:1 OF:0 AF:0 PF:0 IF:1
165E:000001BA  inc  bx                                                EAX:00000000 EBX:00000843 ECX:00007FEA EDX:00000000 ESI:00000038 EDI:0000211E EBP:00007BD8 ESP:00007BC2 DS:F600 ES:1688 FS:0000 GS:0000 SS:3E00 CF:0 ZF:0 SF:0 OF:0 AF:0 PF:0 IF:1
165E:000001BB  cmp  bx,0B19                                           EAX:00000000 EBX:00000844 ECX:00007FEA EDX:00000000 ESI:00000038 EDI:0000211E EBP:00007BD8 ESP:00007BC2 DS:F600 ES:1688 FS:0000 GS:0000 SS:3E00 CF:0 ZF:0 SF:0 OF:0 AF:0 PF:1 IF:1
165E:000001BF  jc   000001B5 ($-c)             (up)                   EAX:00000000 EBX:00000844 ECX:00007FEA EDX:00000000 ESI:00000038 EDI:0000211E EBP:00007BD8 ESP:00007BC2 DS:F600 ES:1688 FS:0000 GS:0000 SS:3E00 CF:1 ZF:0 SF:1 OF:0 AF:1 PF:1 IF:1
165E:000001B5  lodsw                                                  EAX:00000000 EBX:00000844 ECX:00007FEA EDX:00000000 ESI:00000038 EDI:0000211E EBP:00007BD8 ESP:00007BC2 DS:F600 ES:1688 FS:0000 GS:0000 SS:3E00 CF:1 ZF:0 SF:1 OF:0 AF:1 PF:1 IF:1
165E:000001B6  xor  es:[bx],ax                 es:[0844]=CE99         EAX:00000000 EBX:00000844 ECX:00007FEA EDX:00000000 ESI:0000003A EDI:0000211E EBP:00007BD8 ESP:00007BC2 DS:F600 ES:1688 FS:0000 GS:0000 SS:3E00 CF:1 ZF:0 SF:1 OF:0 AF:1 PF:1 IF:1
165E:000001B9  inc  bx                                                EAX:00000000 EBX:00000844 ECX:00007FEA EDX:00000000 ESI:0000003A EDI:0000211E EBP:00007BD8 ESP:00007BC2 DS:F600 ES:1688 FS:0000 GS:0000 SS:3E00 CF:0 ZF:0 SF:1 OF:0 AF:0 PF:1 IF:1
165E:000001BA  inc  bx                                                EAX:00000000 EBX:00000845 ECX:00007FEA EDX:00000000 ESI:0000003A EDI:0000211E EBP:00007BD8 ESP:00007BC2 DS:F600 ES:1688 FS:0000 GS:0000 SS:3E00 CF:0 ZF:0 SF:0 OF:0 AF:0 PF:0 IF:1
165E:000001BB  cmp  bx,0B19                                           EAX:00000000 EBX:00000846 ECX:00007FEA EDX:00000000 ESI:0000003A EDI:0000211E EBP:00007BD8 ESP:00007BC2 DS:F600 ES:1688 FS:0000 GS:0000 SS:3E00 CF:0 ZF:0 SF:0 OF:0 AF:0 PF:0 IF:1
165E:000001BF  jc   000001B5 ($-c)             (up)                   EAX:00000000 EBX:00000846 ECX:00007FEA EDX:00000000 ESI:0000003A EDI:0000211E EBP:00007BD8 ESP:00007BC2 DS:F600 ES:1688 FS:0000 GS:0000 SS:3E00 CF:1 ZF:0 SF:1 OF:0 AF:1 PF:1 IF:1
165E:000001B5  lodsw                                                  EAX:00000000 EBX:00000846 ECX:00007FEA EDX:00000000 ESI:0000003A EDI:0000211E EBP:00007BD8 ESP:00007BC2 DS:F600 ES:1688 FS:0000 GS:0000 SS:3E00 CF:1 ZF:0 SF:1 OF:0 AF:1 PF:1 IF:1
165E:000001B6  xor  es:[bx],ax                 es:[0846]=2DA0         EAX:00000000 EBX:00000846 ECX:00007FEA EDX:00000000 ESI:0000003C EDI:0000211E EBP:00007BD8 ESP:00007BC2 DS:F600 ES:1688 FS:0000 GS:0000 SS:3E00 CF:1 ZF:0 SF:1 OF:0 AF:1 PF:1 IF:1
165E:000001B9  inc  bx                                                EAX:00000000 EBX:00000846 ECX:00007FEA EDX:00000000 ESI:0000003C EDI:0000211E EBP:00007BD8 ESP:00007BC2 DS:F600 ES:1688 FS:0000 GS:0000 SS:3E00 CF:0 ZF:0 SF:0 OF:0 AF:0 PF:1 IF:1
165E:000001BA  inc  bx                                                EAX:00000000 EBX:00000847 ECX:00007FEA EDX:00000000 ESI:0000003C EDI:0000211E EBP:00007BD8 ESP:00007BC2 DS:F600 ES:1688 FS:0000 GS:0000 SS:3E00 CF:0 ZF:0 SF:0 OF:0 AF:0 PF:1 IF:1
165E:000001BB  cmp  bx,0B19                                           EAX:00000000 EBX:00000848 ECX:00007FEA EDX:00000000 ESI:0000003C EDI:0000211E EBP:00007BD8 ESP:00007BC2 DS:F600 ES:1688 FS:0000 GS:0000 SS:3E00 CF:0 ZF:0 SF:0 OF:0 AF:0 PF:1 IF:1
165E:000001BF  jc   000001B5 ($-c)             (up)                   EAX:00000000 EBX:00000848 ECX:00007FEA EDX:00000000 ESI:0000003C EDI:0000211E EBP:00007BD8 ESP:00007BC2 DS:F600 ES:1688 FS:0000 GS:0000 SS:3E00 CF:1 ZF:0 SF:1 OF:0 AF:1 PF:0 IF:1
165E:000001B5  lodsw                                                  EAX:00000000 EBX:00000848 ECX:00007FEA EDX:00000000 ESI:0000003C EDI:0000211E EBP:00007BD8 ESP:00007BC2 DS:F600 ES:1688 FS:0000 GS:0000 SS:3E00 CF:1 ZF:0 SF:1 OF:0 AF:1 PF:0 IF:1
165E:000001B6  xor  es:[bx],ax                 es:[0848]=08AD         EAX:00000000 EBX:00000848 ECX:00007FEA EDX:00000000 ESI:0000003E EDI:0000211E EBP:00007BD8 ESP:00007BC2 DS:F600 ES:1688 FS:0000 GS:0000 SS:3E00 CF:1 ZF:0 SF:1 OF:0 AF:1 PF:0 IF:1
165E:000001B9  inc  bx                                                EAX:00000000 EBX:00000848 ECX:00007FEA EDX:00000000 ESI:0000003E EDI:0000211E EBP:00007BD8 ESP:00007BC2 DS:F600 ES:1688 FS:0000 GS:0000 SS:3E00 CF:0 ZF:0 SF:0 OF:0 AF:0 PF:0 IF:1
165E:000001BA  inc  bx                                                EAX:00000000 EBX:00000849 ECX:00007FEA EDX:00000000 ESI:0000003E EDI:0000211E EBP:00007BD8 ESP:00007BC2 DS:F600 ES:1688 FS:0000 GS:0000 SS:3E00 CF:0 ZF:0 SF:0 OF:0 AF:0 PF:0 IF:1
165E:000001BB  cmp  bx,0B19                                           EAX:00000000 EBX:0000084A ECX:00007FEA EDX:00000000 ESI:0000003E EDI:0000211E EBP:00007BD8 ESP:00007BC2 DS:F600 ES:1688 FS:0000 GS:0000 SS:3E00 CF:0 ZF:0 SF:0 OF:0 AF:0 PF:0 IF:1
165E:000001BF  jc   000001B5 ($-c)             (up)                   EAX:00000000 EBX:0000084A ECX:00007FEA EDX:00000000 ESI:0000003E EDI:0000211E EBP:00007BD8 ESP:00007BC2 DS:F600 ES:1688 FS:0000 GS:0000 SS:3E00 CF:1 ZF:0 SF:1 OF:0 AF:0 PF:0 IF:1
165E:000001B5  lodsw                                                  EAX:00000000 EBX:0000084A ECX:00007FEA EDX:00000000 ESI:0000003E EDI:0000211E EBP:00007BD8 ESP:00007BC2 DS:F600 ES:1688 FS:0000 GS:0000 SS:3E00 CF:1 ZF:0 SF:1 OF:0 AF:0 PF:0 IF:1
165E:000001B6  xor  es:[bx],ax                 es:[084A]=F317         EAX:00000000 EBX:0000084A ECX:00007FEA EDX:00000000 ESI:00000040 EDI:0000211E EBP:00007BD8 ESP:00007BC2 DS:F600 ES:1688 FS:0000 GS:0000 SS:3E00 CF:1 ZF:0 SF:1 OF:0 AF:0 PF:0 IF:1
165E:000001B9  inc  bx                                                EAX:00000000 EBX:0000084A ECX:00007FEA EDX:00000000 ESI:00000040 EDI:0000211E EBP:00007BD8 ESP:00007BC2 DS:F600 ES:1688 FS:0000 GS:0000 SS:3E00 CF:0 ZF:0 SF:1 OF:0 AF:0 PF:1 IF:1
165E:000001BA  inc  bx                                                EAX:00000000 EBX:0000084B ECX:00007FEA EDX:00000000 ESI:00000040 EDI:0000211E EBP:00007BD8 ESP:00007BC2 DS:F600 ES:1688 FS:0000 GS:0000 SS:3E00 CF:0 ZF:0 SF:0 OF:0 AF:0 PF:1 IF:1
165E:000001BB  cmp  bx,0B19                                           EAX:00000000 EBX:0000084C ECX:00007FEA EDX:00000000 ESI:00000040 EDI:0000211E EBP:00007BD8 ESP:00007BC2 DS:F600 ES:1688 FS:0000 GS:0000 SS:3E00 CF:0 ZF:0 SF:0 OF:0 AF:0 PF:0 IF:1
165E:000001BF  jc   000001B5 ($-c)             (up)                   EAX:00000000 EBX:0000084C ECX:00007FEA EDX:00000000 ESI:00000040 EDI:0000211E EBP:00007BD8 ESP:00007BC2 DS:F600 ES:1688 FS:0000 GS:0000 SS:3E00 CF:1 ZF:0 SF:1 OF:0 AF:0 PF:1 IF:1
165E:000001B5  lodsw                                                  EAX:00000000 EBX:0000084C ECX:00007FEA EDX:00000000 ESI:00000040 EDI:0000211E EBP:00007BD8 ESP:00007BC2 DS:F600 ES:1688 FS:0000 GS:0000 SS:3E00 CF:1 ZF:0 SF:1 OF:0 AF:0 PF:1 IF:1
165E:000001B6  xor  es:[bx],ax                 es:[084C]=5B15         EAX:00000000 EBX:0000084C ECX:00007FEA EDX:00000000 ESI:00000042 EDI:0000211E EBP:00007BD8 ESP:00007BC2 DS:F600 ES:1688 FS:0000 GS:0000 SS:3E00 CF:1 ZF:0 SF:1 OF:0 AF:0 PF:1 IF:1
165E:000001B9  inc  bx                                                EAX:00000000 EBX:0000084C ECX:00007FEA EDX:00000000 ESI:00000042 EDI:0000211E EBP:00007BD8 ESP:00007BC2 DS:F600 ES:1688 FS:0000 GS:0000 SS:3E00 CF:0 ZF:0 SF:0 OF:0 AF:0 PF:0 IF:1
165E:000001BA  inc  bx                                                EAX:00000000 EBX:0000084D ECX:00007FEA EDX:00000000 ESI:00000042 EDI:0000211E EBP:00007BD8 ESP:00007BC2 DS:F600 ES:1688 FS:0000 GS:0000 SS:3E00 CF:0 ZF:0 SF:0 OF:0 AF:0 PF:1 IF:1
165E:000001BB  cmp  bx,0B19                                           EAX:00000000 EBX:0000084E ECX:00007FEA EDX:00000000 ESI:00000042 EDI:0000211E EBP:00007BD8 ESP:00007BC2 DS:F600 ES:1688 FS:0000 GS:0000 SS:3E00 CF:0 ZF:0 SF:0 OF:0 AF:0 PF:1 IF:1
165E:000001BF  jc   000001B5 ($-c)             (up)                   EAX:00000000 EBX:0000084E ECX:00007FEA EDX:00000000 ESI:00000042 EDI:0000211E EBP:00007BD8 ESP:00007BC2 DS:F600 ES:1688 FS:0000 GS:0000 SS:3E00 CF:1 ZF:0 SF:1 OF:0 AF:0 PF:1 IF:1
165E:000001B5  lodsw                                                  EAX:00000000 EBX:0000084E ECX:00007FEA EDX:00000000 ESI:00000042 EDI:0000211E EBP:00007BD8 ESP:00007BC2 DS:F600 ES:1688 FS:0000 GS:0000 SS:3E00 CF:1 ZF:0 SF:1 OF:0 AF:0 PF:1 IF:1
165E:000001B6  xor  es:[bx],ax                 es:[084E]=1B98         EAX:00000000 EBX:0000084E ECX:00007FEA EDX:00000000 ESI:00000044 EDI:0000211E EBP:00007BD8 ESP:00007BC2 DS:F600 ES:1688 FS:0000 GS:0000 SS:3E00 CF:1 ZF:0 SF:1 OF:0 AF:0 PF:1 IF:1
165E:000001B9  inc  bx                                                EAX:00000000 EBX:0000084E ECX:00007FEA EDX:00000000 ESI:00000044 EDI:0000211E EBP:00007BD8 ESP:00007BC2 DS:F600 ES:1688 FS:0000 GS:0000 SS:3E00 CF:0 ZF:0 SF:0 OF:0 AF:0 PF:0 IF:1
165E:000001BA  inc  bx                                                EAX:00000000 EBX:0000084F ECX:00007FEA EDX:00000000 ESI:00000044 EDI:0000211E EBP:00007BD8 ESP:00007BC2 DS:F600 ES:1688 FS:0000 GS:0000 SS:3E00 CF:0 ZF:0 SF:0 OF:0 AF:0 PF:0 IF:1
165E:000001BB  cmp  bx,0B19                                           EAX:00000000 EBX:00000850 ECX:00007FEA EDX:00000000 ESI:00000044 EDI:0000211E EBP:00007BD8 ESP:00007BC2 DS:F600 ES:1688 FS:0000 GS:0000 SS:3E00 CF:0 ZF:0 SF:0 OF:0 AF:1 PF:1 IF:1
165E:000001BF  jc   000001B5 ($-c)             (up)                   EAX:00000000 EBX:00000850 ECX:00007FEA EDX:00000000 ESI:00000044 EDI:0000211E EBP:00007BD8 ESP:00007BC2 DS:F600 ES:1688 FS:0000 GS:0000 SS:3E00 CF:1 ZF:0 SF:1 OF:0 AF:1 PF:0 IF:1
165E:000001B5  lodsw                                                  EAX:00000000 EBX:00000850 ECX:00007FEA EDX:00000000 ESI:00000044 EDI:0000211E EBP:00007BD8 ESP:00007BC2 DS:F600 ES:1688 FS:0000 GS:0000 SS:3E00 CF:1 ZF:0 SF:1 OF:0 AF:1 PF:0 IF:1
165E:000001B6  xor  es:[bx],ax                 es:[0850]=69B4         EAX:00000000 EBX:00000850 ECX:00007FEA EDX:00000000 ESI:00000046 EDI:0000211E EBP:00007BD8 ESP:00007BC2 DS:F600 ES:1688 FS:0000 GS:0000 SS:3E00 CF:1 ZF:0 SF:1 OF:0 AF:1 PF:0 IF:1
165E:000001B9  inc  bx                                                EAX:00000000 EBX:00000850 ECX:00007FEA EDX:00000000 ESI:00000046 EDI:0000211E EBP:00007BD8 ESP:00007BC2 DS:F600 ES:1688 FS:0000 GS:0000 SS:3E00 CF:0 ZF:0 SF:0 OF:0 AF:0 PF:1 IF:1
165E:000001BA  inc  bx                                                EAX:00000000 EBX:00000851 ECX:00007FEA EDX:00000000 ESI:00000046 EDI:0000211E EBP:00007BD8 ESP:00007BC2 DS:F600 ES:1688 FS:0000 GS:0000 SS:3E00 CF:0 ZF:0 SF:0 OF:0 AF:0 PF:0 IF:1
165E:000001BB  cmp  bx,0B19                                           EAX:00000000 EBX:00000852 ECX:00007FEA EDX:00000000 ESI:00000046 EDI:0000211E EBP:00007BD8 ESP:00007BC2 DS:F600 ES:1688 FS:0000 GS:0000 SS:3E00 CF:0 ZF:0 SF:0 OF:0 AF:0 PF:0 IF:1
165E:000001BF  jc   000001B5 ($-c)             (up)                   EAX:00000000 EBX:00000852 ECX:00007FEA EDX:00000000 ESI:00000046 EDI:0000211E EBP:00007BD8 ESP:00007BC2 DS:F600 ES:1688 FS:0000 GS:0000 SS:3E00 CF:1 ZF:0 SF:1 OF:0 AF:1 PF:1 IF:1
165E:000001B5  lodsw                                                  EAX:00000000 EBX:00000852 ECX:00007FEA EDX:00000000 ESI:00000046 EDI:0000211E EBP:00007BD8 ESP:00007BC2 DS:F600 ES:1688 FS:0000 GS:0000 SS:3E00 CF:1 ZF:0 SF:1 OF:0 AF:1 PF:1 IF:1
165E:000001B6  xor  es:[bx],ax                 es:[0852]=55D5         EAX:00000000 EBX:00000852 ECX:00007FEA EDX:00000000 ESI:00000048 EDI:0000211E EBP:00007BD8 ESP:00007BC2 DS:F600 ES:1688 FS:0000 GS:0000 SS:3E00 CF:1 ZF:0 SF:1 OF:0 AF:1 PF:1 IF:1
165E:000001B9  inc  bx                                                EAX:00000000 EBX:00000852 ECX:00007FEA EDX:00000000 ESI:00000048 EDI:0000211E EBP:00007BD8 ESP:00007BC2 DS:F600 ES:1688 FS:0000 GS:0000 SS:3E00 CF:0 ZF:0 SF:0 OF:0 AF:0 PF:0 IF:1
165E:000001BA  inc  bx                                                EAX:00000000 EBX:00000853 ECX:00007FEA EDX:00000000 ESI:00000048 EDI:0000211E EBP:00007BD8 ESP:00007BC2 DS:F600 ES:1688 FS:0000 GS:0000 SS:3E00 CF:0 ZF:0 SF:0 OF:0 AF:0 PF:1 IF:1
165E:000001BB  cmp  bx,0B19                                           EAX:00000000 EBX:00000854 ECX:00007FEA EDX:00000000 ESI:00000048 EDI:0000211E EBP:00007BD8 ESP:00007BC2 DS:F600 ES:1688 FS:0000 GS:0000 SS:3E00 CF:0 ZF:0 SF:0 OF:0 AF:0 PF:0 IF:1
165E:000001BF  jc   000001B5 ($-c)             (up)                   EAX:00000000 EBX:00000854 ECX:00007FEA EDX:00000000 ESI:00000048 EDI:0000211E EBP:00007BD8 ESP:00007BC2 DS:F600 ES:1688 FS:0000 GS:0000 SS:3E00 CF:1 ZF:0 SF:1 OF:0 AF:1 PF:0 IF:1
165E:000001B5  lodsw                                                  EAX:00000000 EBX:00000854 ECX:00007FEA EDX:00000000 ESI:00000048 EDI:0000211E EBP:00007BD8 ESP:00007BC2 DS:F600 ES:1688 FS:0000 GS:0000 SS:3E00 CF:1 ZF:0 SF:1 OF:0 AF:1 PF:0 IF:1
165E:000001B6  xor  es:[bx],ax                 es:[0854]=BC2E         EAX:00000000 EBX:00000854 ECX:00007FEA EDX:00000000 ESI:0000004A EDI:0000211E EBP:00007BD8 ESP:00007BC2 DS:F600 ES:1688 FS:0000 GS:0000 SS:3E00 CF:1 ZF:0 SF:1 OF:0 AF:1 PF:0 IF:1
165E:000001B9  inc  bx                                                EAX:00000000 EBX:00000854 ECX:00007FEA EDX:00000000 ESI:0000004A EDI:0000211E EBP:00007BD8 ESP:00007BC2 DS:F600 ES:1688 FS:0000 GS:0000 SS:3E00 CF:0 ZF:0 SF:1 OF:0 AF:0 PF:1 IF:1
165E:000001BA  inc  bx                                                EAX:00000000 EBX:00000855 ECX:00007FEA EDX:00000000 ESI:0000004A EDI:0000211E EBP:00007BD8 ESP:00007BC2 DS:F600 ES:1688 FS:0000 GS:0000 SS:3E00 CF:0 ZF:0 SF:0 OF:0 AF:0 PF:1 IF:1
165E:000001BB  cmp  bx,0B19                                           EAX:00000000 EBX:00000856 ECX:00007FEA EDX:00000000 ESI:0000004A EDI:0000211E EBP:00007BD8 ESP:00007BC2 DS:F600 ES:1688 FS:0000 GS:0000 SS:3E00 CF:0 ZF:0 SF:0 OF:0 AF:0 PF:1 IF:1
165E:000001BF  jc   000001B5 ($-c)             (up)                   EAX:00000000 EBX:00000856 ECX:00007FEA EDX:00000000 ESI:0000004A EDI:0000211E EBP:00007BD8 ESP:00007BC2 DS:F600 ES:1688 FS:0000 GS:0000 SS:3E00 CF:1 ZF:0 SF:1 OF:0 AF:1 PF:0 IF:1
165E:000001B5  lodsw                                                  EAX:00000000 EBX:00000856 ECX:00007FEA EDX:00000000 ESI:0000004A EDI:0000211E EBP:00007BD8 ESP:00007BC2 DS:F600 ES:1688 FS:0000 GS:0000 SS:3E00 CF:1 ZF:0 SF:1 OF:0 AF:1 PF:0 IF:1
165E:000001B6  xor  es:[bx],ax                 es:[0856]=E65A         EAX:00000000 EBX:00000856 ECX:00007FEA EDX:00000000 ESI:0000004C EDI:0000211E EBP:00007BD8 ESP:00007BC2 DS:F600 ES:1688 FS:0000 GS:0000 SS:3E00 CF:1 ZF:0 SF:1 OF:0 AF:1 PF:0 IF:1
165E:000001B9  inc  bx                                                EAX:00000000 EBX:00000856 ECX:00007FEA EDX:00000000 ESI:0000004C EDI:0000211E EBP:00007BD8 ESP:00007BC2 DS:F600 ES:1688 FS:0000 GS:0000 SS:3E00 CF:0 ZF:0 SF:1 OF:0 AF:0 PF:1 IF:1
165E:000001BA  inc  bx                                                EAX:00000000 EBX:00000857 ECX:00007FEA EDX:00000000 ESI:0000004C EDI:0000211E EBP:00007BD8 ESP:00007BC2 DS:F600 ES:1688 FS:0000 GS:0000 SS:3E00 CF:0 ZF:0 SF:0 OF:0 AF:0 PF:0 IF:1
165E:000001BB  cmp  bx,0B19                                           EAX:00000000 EBX:00000858 ECX:00007FEA EDX:00000000 ESI:0000004C EDI:0000211E EBP:00007BD8 ESP:00007BC2 DS:F600 ES:1688 FS:0000 GS:0000 SS:3E00 CF:0 ZF:0 SF:0 OF:0 AF:0 PF:0 IF:1
165E:000001BF  jc   000001B5 ($-c)             (up)                   EAX:00000000 EBX:00000858 ECX:00007FEA EDX:00000000 ESI:0000004C EDI:0000211E EBP:00007BD8 ESP:00007BC2 DS:F600 ES:1688 FS:0000 GS:0000 SS:3E00 CF:1 ZF:0 SF:1 OF:0 AF:1 PF:1 IF:1
165E:000001B5  lodsw                                                  EAX:00000000 EBX:00000858 ECX:00007FEA EDX:00000000 ESI:0000004C EDI:0000211E EBP:00007BD8 ESP:00007BC2 DS:F600 ES:1688 FS:0000 GS:0000 SS:3E00 CF:1 ZF:0 SF:1 OF:0 AF:1 PF:1 IF:1
165E:000001B6  xor  es:[bx],ax                 es:[0858]=BAA4         EAX:00000000 EBX:00000858 ECX:00007FEA EDX:00000000 ESI:0000004E EDI:0000211E EBP:00007BD8 ESP:00007BC2 DS:F600 ES:1688 FS:0000 GS:0000 SS:3E00 CF:1 ZF:0 SF:1 OF:0 AF:1 PF:1 IF:1
165E:000001B9  inc  bx                                                EAX:00000000 EBX:00000858 ECX:00007FEA EDX:00000000 ESI:0000004E EDI:0000211E EBP:00007BD8 ESP:00007BC2 DS:F600 ES:1688 FS:0000 GS:0000 SS:3E00 CF:0 ZF:0 SF:1 OF:0 AF:0 PF:0 IF:1
165E:000001BA  inc  bx                                                EAX:00000000 EBX:00000859 ECX:00007FEA EDX:00000000 ESI:0000004E EDI:0000211E EBP:00007BD8 ESP:00007BC2 DS:F600 ES:1688 FS:0000 GS:0000 SS:3E00 CF:0 ZF:0 SF:0 OF:0 AF:0 PF:1 IF:1
165E:000001BB  cmp  bx,0B19                                           EAX:00000000 EBX:0000085A ECX:00007FEA EDX:00000000 ESI:0000004E EDI:0000211E EBP:00007BD8 ESP:00007BC2 DS:F600 ES:1688 FS:0000 GS:0000 SS:3E00 CF:0 ZF:0 SF:0 OF:0 AF:0 PF:1 IF:1
165E:000001BF  jc   000001B5 ($-c)             (up)                   EAX:00000000 EBX:0000085A ECX:00007FEA EDX:00000000 ESI:0000004E EDI:0000211E EBP:00007BD8 ESP:00007BC2 DS:F600 ES:1688 FS:0000 GS:0000 SS:3E00 CF:1 ZF:0 SF:1 OF:0 AF:0 PF:1 IF:1
165E:000001B5  lodsw                                                  EAX:00000000 EBX:0000085A ECX:00007FEA EDX:00000000 ESI:0000004E EDI:0000211E EBP:00007BD8 ESP:00007BC2 DS:F600 ES:1688 FS:0000 GS:0000 SS:3E00 CF:1 ZF:0 SF:1 OF:0 AF:0 PF:1 IF:1
165E:000001B6  xor  es:[bx],ax                 es:[085A]=D110         EAX:00000000 EBX:0000085A ECX:00007FEA EDX:00000000 ESI:00000050 EDI:0000211E EBP:00007BD8 ESP:00007BC2 DS:F600 ES:1688 FS:0000 GS:0000 SS:3E00 CF:1 ZF:0 SF:1 OF:0 AF:0 PF:1 IF:1
165E:000001B9  inc  bx                                                EAX:00000000 EBX:0000085A ECX:00007FEA EDX:00000000 ESI:00000050 EDI:0000211E EBP:00007BD8 ESP:00007BC2 DS:F600 ES:1688 FS:0000 GS:0000 SS:3E00 CF:0 ZF:0 SF:1 OF:0 AF:0 PF:0 IF:1
165E:000001BA  inc  bx                                                EAX:00000000 EBX:0000085B ECX:00007FEA EDX:00000000 ESI:00000050 EDI:0000211E EBP:00007BD8 ESP:00007BC2 DS:F600 ES:1688 FS:0000 GS:0000 SS:3E00 CF:0 ZF:0 SF:0 OF:0 AF:0 PF:0 IF:1
165E:000001BB  cmp  bx,0B19                                           EAX:00000000 EBX:0000085C ECX:00007FEA EDX:00000000 ESI:00000050 EDI:0000211E EBP:00007BD8 ESP:00007BC2 DS:F600 ES:1688 FS:0000 GS:0000 SS:3E00 CF:0 ZF:0 SF:0 OF:0 AF:0 PF:1 IF:1
165E:000001BF  jc   000001B5 ($-c)             (up)                   EAX:00000000 EBX:0000085C ECX:00007FEA EDX:00000000 ESI:00000050 EDI:0000211E EBP:00007BD8 ESP:00007BC2 DS:F600 ES:1688 FS:0000 GS:0000 SS:3E00 CF:1 ZF:0 SF:1 OF:0 AF:0 PF:0 IF:1
165E:000001B5  lodsw                                                  EAX:00000000 EBX:0000085C ECX:00007FEA EDX:00000000 ESI:00000050 EDI:0000211E EBP:00007BD8 ESP:00007BC2 DS:F600 ES:1688 FS:0000 GS:0000 SS:3E00 CF:1 ZF:0 SF:1 OF:0 AF:0 PF:0 IF:1
165E:000001B6  xor  es:[bx],ax                 es:[085C]=6820         EAX:00000000 EBX:0000085C ECX:00007FEA EDX:00000000 ESI:00000052 EDI:0000211E EBP:00007BD8 ESP:00007BC2 DS:F600 ES:1688 FS:0000 GS:0000 SS:3E00 CF:1 ZF:0 SF:1 OF:0 AF:0 PF:0 IF:1
165E:000001B9  inc  bx                                                EAX:00000000 EBX:0000085C ECX:00007FEA EDX:00000000 ESI:00000052 EDI:0000211E EBP:00007BD8 ESP:00007BC2 DS:F600 ES:1688 FS:0000 GS:0000 SS:3E00 CF:0 ZF:0 SF:0 OF:0 AF:0 PF:0 IF:1
165E:000001BA  inc  bx                                                EAX:00000000 EBX:0000085D ECX:00007FEA EDX:00000000 ESI:00000052 EDI:0000211E EBP:00007BD8 ESP:00007BC2 DS:F600 ES:1688 FS:0000 GS:0000 SS:3E00 CF:0 ZF:0 SF:0 OF:0 AF:0 PF:0 IF:1
165E:000001BB  cmp  bx,0B19                                           EAX:00000000 EBX:0000085E ECX:00007FEA EDX:00000000 ESI:00000052 EDI:0000211E EBP:00007BD8 ESP:00007BC2 DS:F600 ES:1688 FS:0000 GS:0000 SS:3E00 CF:0 ZF:0 SF:0 OF:0 AF:0 PF:0 IF:1
165E:000001BF  jc   000001B5 ($-c)             (up)                   EAX:00000000 EBX:0000085E ECX:00007FEA EDX:00000000 ESI:00000052 EDI:0000211E EBP:00007BD8 ESP:00007BC2 DS:F600 ES:1688 FS:0000 GS:0000 SS:3E00 CF:1 ZF:0 SF:1 OF:0 AF:0 PF:0 IF:1
165E:000001B5  lodsw                                                  EAX:00000000 EBX:0000085E ECX:00007FEA EDX:00000000 ESI:00000052 EDI:0000211E EBP:00007BD8 ESP:00007BC2 DS:F600 ES:1688 FS:0000 GS:0000 SS:3E00 CF:1 ZF:0 SF:1 OF:0 AF:0 PF:0 IF:1
165E:000001B6  xor  es:[bx],ax                 es:[085E]=CE3A         EAX:00000000 EBX:0000085E ECX:00007FEA EDX:00000000 ESI:00000054 EDI:0000211E EBP:00007BD8 ESP:00007BC2 DS:F600 ES:1688 FS:0000 GS:0000 SS:3E00 CF:1 ZF:0 SF:1 OF:0 AF:0 PF:0 IF:1
165E:000001B9  inc  bx                                                EAX:00000000 EBX:0000085E ECX:00007FEA EDX:00000000 ESI:00000054 EDI:0000211E EBP:00007BD8 ESP:00007BC2 DS:F600 ES:1688 FS:0000 GS:0000 SS:3E00 CF:0 ZF:0 SF:1 OF:0 AF:0 PF:1 IF:1
165E:000001BA  inc  bx                                                EAX:00000000 EBX:0000085F ECX:00007FEA EDX:00000000 ESI:00000054 EDI:0000211E EBP:00007BD8 ESP:00007BC2 DS:F600 ES:1688 FS:0000 GS:0000 SS:3E00 CF:0 ZF:0 SF:0 OF:0 AF:0 PF:1 IF:1
165E:000001BB  cmp  bx,0B19                                           EAX:00000000 EBX:00000860 ECX:00007FEA EDX:00000000 ESI:00000054 EDI:0000211E EBP:00007BD8 ESP:00007BC2 DS:F600 ES:1688 FS:0000 GS:0000 SS:3E00 CF:0 ZF:0 SF:0 OF:0 AF:1 PF:1 IF:1
165E:000001BF  jc   000001B5 ($-c)             (up)                   EAX:00000000 EBX:00000860 ECX:00007FEA EDX:00000000 ESI:00000054 EDI:0000211E EBP:00007BD8 ESP:00007BC2 DS:F600 ES:1688 FS:0000 GS:0000 SS:3E00 CF:1 ZF:0 SF:1 OF:0 AF:1 PF:1 IF:1
165E:000001B5  lodsw                                                  EAX:00000000 EBX:00000860 ECX:00007FEA EDX:00000000 ESI:00000054 EDI:0000211E EBP:00007BD8 ESP:00007BC2 DS:F600 ES:1688 FS:0000 GS:0000 SS:3E00 CF:1 ZF:0 SF:1 OF:0 AF:1 PF:1 IF:1
165E:000001B6  xor  es:[bx],ax                 es:[0860]=DD7C         EAX:00000000 EBX:00000860 ECX:00007FEA EDX:00000000 ESI:00000056 EDI:0000211E EBP:00007BD8 ESP:00007BC2 DS:F600 ES:1688 FS:0000 GS:0000 SS:3E00 CF:1 ZF:0 SF:1 OF:0 AF:1 PF:1 IF:1
165E:000001B9  inc  bx                                                EAX:00000000 EBX:00000860 ECX:00007FEA EDX:00000000 ESI:00000056 EDI:0000211E EBP:00007BD8 ESP:00007BC2 DS:F600 ES:1688 FS:0000 GS:0000 SS:3E00 CF:0 ZF:0 SF:1 OF:0 AF:0 PF:0 IF:1
165E:000001BA  inc  bx                                                EAX:00000000 EBX:00000861 ECX:00007FEA EDX:00000000 ESI:00000056 EDI:0000211E EBP:00007BD8 ESP:00007BC2 DS:F600 ES:1688 FS:0000 GS:0000 SS:3E00 CF:0 ZF:0 SF:0 OF:0 AF:0 PF:0 IF:1
165E:000001BB  cmp  bx,0B19                                           EAX:00000000 EBX:00000862 ECX:00007FEA EDX:00000000 ESI:00000056 EDI:0000211E EBP:00007BD8 ESP:00007BC2 DS:F600 ES:1688 FS:0000 GS:0000 SS:3E00 CF:0 ZF:0 SF:0 OF:0 AF:0 PF:0 IF:1
165E:000001BF  jc   000001B5 ($-c)             (up)                   EAX:00000000 EBX:00000862 ECX:00007FEA EDX:00000000 ESI:00000056 EDI:0000211E EBP:00007BD8 ESP:00007BC2 DS:F600 ES:1688 FS:0000 GS:0000 SS:3E00 CF:1 ZF:0 SF:1 OF:0 AF:1 PF:0 IF:1
165E:000001B5  lodsw                                                  EAX:00000000 EBX:00000862 ECX:00007FEA EDX:00000000 ESI:00000056 EDI:0000211E EBP:00007BD8 ESP:00007BC2 DS:F600 ES:1688 FS:0000 GS:0000 SS:3E00 CF:1 ZF:0 SF:1 OF:0 AF:1 PF:0 IF:1
165E:000001B6  xor  es:[bx],ax                 es:[0862]=35ED         EAX:00000000 EBX:00000862 ECX:00007FEA EDX:00000000 ESI:00000058 EDI:0000211E EBP:00007BD8 ESP:00007BC2 DS:F600 ES:1688 FS:0000 GS:0000 SS:3E00 CF:1 ZF:0 SF:1 OF:0 AF:1 PF:0 IF:1
165E:000001B9  inc  bx                                                EAX:00000000 EBX:00000862 ECX:00007FEA EDX:00000000 ESI:00000058 EDI:0000211E EBP:00007BD8 ESP:00007BC2 DS:F600 ES:1688 FS:0000 GS:0000 SS:3E00 CF:0 ZF:0 SF:0 OF:0 AF:0 PF:1 IF:1
165E:000001BA  inc  bx                                                EAX:00000000 EBX:00000863 ECX:00007FEA EDX:00000000 ESI:00000058 EDI:0000211E EBP:00007BD8 ESP:00007BC2 DS:F600 ES:1688 FS:0000 GS:0000 SS:3E00 CF:0 ZF:0 SF:0 OF:0 AF:0 PF:1 IF:1
165E:000001BB  cmp  bx,0B19                                           EAX:00000000 EBX:00000864 ECX:00007FEA EDX:00000000 ESI:00000058 EDI:0000211E EBP:00007BD8 ESP:00007BC2 DS:F600 ES:1688 FS:0000 GS:0000 SS:3E00 CF:0 ZF:0 SF:0 OF:0 AF:0 PF:0 IF:1
165E:000001BF  jc   000001B5 ($-c)             (up)                   EAX:00000000 EBX:00000864 ECX:00007FEA EDX:00000000 ESI:00000058 EDI:0000211E EBP:00007BD8 ESP:00007BC2 DS:F600 ES:1688 FS:0000 GS:0000 SS:3E00 CF:1 ZF:0 SF:1 OF:0 AF:1 PF:1 IF:1
165E:000001B5  lodsw                                                  EAX:00000000 EBX:00000864 ECX:00007FEA EDX:00000000 ESI:00000058 EDI:0000211E EBP:00007BD8 ESP:00007BC2 DS:F600 ES:1688 FS:0000 GS:0000 SS:3E00 CF:1 ZF:0 SF:1 OF:0 AF:1 PF:1 IF:1
165E:000001B6  xor  es:[bx],ax                 es:[0864]=2831         EAX:00000000 EBX:00000864 ECX:00007FEA EDX:00000000 ESI:0000005A EDI:0000211E EBP:00007BD8 ESP:00007BC2 DS:F600 ES:1688 FS:0000 GS:0000 SS:3E00 CF:1 ZF:0 SF:1 OF:0 AF:1 PF:1 IF:1
165E:000001B9  inc  bx                                                EAX:00000000 EBX:00000864 ECX:00007FEA EDX:00000000 ESI:0000005A EDI:0000211E EBP:00007BD8 ESP:00007BC2 DS:F600 ES:1688 FS:0000 GS:0000 SS:3E00 CF:0 ZF:0 SF:0 OF:0 AF:0 PF:0 IF:1
165E:000001BA  inc  bx                                                EAX:00000000 EBX:00000865 ECX:00007FEA EDX:00000000 ESI:0000005A EDI:0000211E EBP:00007BD8 ESP:00007BC2 DS:F600 ES:1688 FS:0000 GS:0000 SS:3E00 CF:0 ZF:0 SF:0 OF:0 AF:0 PF:1 IF:1
165E:000001BB  cmp  bx,0B19                                           EAX:00000000 EBX:00000866 ECX:00007FEA EDX:00000000 ESI:0000005A EDI:0000211E EBP:00007BD8 ESP:00007BC2 DS:F600 ES:1688 FS:0000 GS:0000 SS:3E00 CF:0 ZF:0 SF:0 OF:0 AF:0 PF:1 IF:1
165E:000001BF  jc   000001B5 ($-c)             (up)                   EAX:00000000 EBX:00000866 ECX:00007FEA EDX:00000000 ESI:0000005A EDI:0000211E EBP:00007BD8 ESP:00007BC2 DS:F600 ES:1688 FS:0000 GS:0000 SS:3E00 CF:1 ZF:0 SF:1 OF:0 AF:1 PF:1 IF:1
165E:000001B5  lodsw                                                  EAX:00000000 EBX:00000866 ECX:00007FEA EDX:00000000 ESI:0000005A EDI:0000211E EBP:00007BD8 ESP:00007BC2 DS:F600 ES:1688 FS:0000 GS:0000 SS:3E00 CF:1 ZF:0 SF:1 OF:0 AF:1 PF:1 IF:1
165E:000001B6  xor  es:[bx],ax                 es:[0866]=D326         EAX:00000000 EBX:00000866 ECX:00007FEA EDX:00000000 ESI:0000005C EDI:0000211E EBP:00007BD8 ESP:00007BC2 DS:F600 ES:1688 FS:0000 GS:0000 SS:3E00 CF:1 ZF:0 SF:1 OF:0 AF:1 PF:1 IF:1
165E:000001B9  inc  bx                                                EAX:00000000 EBX:00000866 ECX:00007FEA EDX:00000000 ESI:0000005C EDI:0000211E EBP:00007BD8 ESP:00007BC2 DS:F600 ES:1688 FS:0000 GS:0000 SS:3E00 CF:0 ZF:0 SF:1 OF:0 AF:0 PF:0 IF:1
165E:000001BA  inc  bx                                                EAX:00000000 EBX:00000867 ECX:00007FEA EDX:00000000 ESI:0000005C EDI:0000211E EBP:00007BD8 ESP:00007BC2 DS:F600 ES:1688 FS:0000 GS:0000 SS:3E00 CF:0 ZF:0 SF:0 OF:0 AF:0 PF:0 IF:1
165E:000001BB  cmp  bx,0B19                                           EAX:00000000 EBX:00000868 ECX:00007FEA EDX:00000000 ESI:0000005C EDI:0000211E EBP:00007BD8 ESP:00007BC2 DS:F600 ES:1688 FS:0000 GS:0000 SS:3E00 CF:0 ZF:0 SF:0 OF:0 AF:0 PF:0 IF:1
165E:000001BF  jc   000001B5 ($-c)             (up)                   EAX:00000000 EBX:00000868 ECX:00007FEA EDX:00000000 ESI:0000005C EDI:0000211E EBP:00007BD8 ESP:00007BC2 DS:F600 ES:1688 FS:0000 GS:0000 SS:3E00 CF:1 ZF:0 SF:1 OF:0 AF:1 PF:0 IF:1
165E:000001B5  lodsw                                                  EAX:00000000 EBX:00000868 ECX:00007FEA EDX:00000000 ESI:0000005C EDI:0000211E EBP:00007BD8 ESP:00007BC2 DS:F600 ES:1688 FS:0000 GS:0000 SS:3E00 CF:1 ZF:0 SF:1 OF:0 AF:1 PF:0 IF:1
165E:000001B6  xor  es:[bx],ax                 es:[0868]=4722         EAX:00000000 EBX:00000868 ECX:00007FEA EDX:00000000 ESI:0000005E EDI:0000211E EBP:00007BD8 ESP:00007BC2 DS:F600 ES:1688 FS:0000 GS:0000 SS:3E00 CF:1 ZF:0 SF:1 OF:0 AF:1 PF:0 IF:1
165E:000001B9  inc  bx                                                EAX:00000000 EBX:00000868 ECX:00007FEA EDX:00000000 ESI:0000005E EDI:0000211E EBP:00007BD8 ESP:00007BC2 DS:F600 ES:1688 FS:0000 GS:0000 SS:3E00 CF:0 ZF:0 SF:0 OF:0 AF:0 PF:1 IF:1
165E:000001BA  inc  bx                                                EAX:00000000 EBX:00000869 ECX:00007FEA EDX:00000000 ESI:0000005E EDI:0000211E EBP:00007BD8 ESP:00007BC2 DS:F600 ES:1688 FS:0000 GS:0000 SS:3E00 CF:0 ZF:0 SF:0 OF:0 AF:0 PF:1 IF:1
165E:000001BB  cmp  bx,0B19                                           EAX:00000000 EBX:0000086A ECX:00007FEA EDX:00000000 ESI:0000005E EDI:0000211E EBP:00007BD8 ESP:00007BC2 DS:F600 ES:1688 FS:0000 GS:0000 SS:3E00 CF:0 ZF:0 SF:0 OF:0 AF:0 PF:1 IF:1
165E:000001BF  jc   000001B5 ($-c)             (up)                   EAX:00000000 EBX:0000086A ECX:00007FEA EDX:00000000 ESI:0000005E EDI:0000211E EBP:00007BD8 ESP:00007BC2 DS:F600 ES:1688 FS:0000 GS:0000 SS:3E00 CF:1 ZF:0 SF:1 OF:0 AF:0 PF:0 IF:1
165E:000001B5  lodsw                                                  EAX:00000000 EBX:0000086A ECX:00007FEA EDX:00000000 ESI:0000005E EDI:0000211E EBP:00007BD8 ESP:00007BC2 DS:F600 ES:1688 FS:0000 GS:0000 SS:3E00 CF:1 ZF:0 SF:1 OF:0 AF:0 PF:0 IF:1
165E:000001B6  xor  es:[bx],ax                 es:[086A]=1467         EAX:00000000 EBX:0000086A ECX:00007FEA EDX:00000000 ESI:00000060 EDI:0000211E EBP:00007BD8 ESP:00007BC2 DS:F600 ES:1688 FS:0000 GS:0000 SS:3E00 CF:1 ZF:0 SF:1 OF:0 AF:0 PF:0 IF:1
165E:000001B9  inc  bx                                                EAX:00000000 EBX:0000086A ECX:00007FEA EDX:00000000 ESI:00000060 EDI:0000211E EBP:00007BD8 ESP:00007BC2 DS:F600 ES:1688 FS:0000 GS:0000 SS:3E00 CF:0 ZF:0 SF:0 OF:0 AF:0 PF:0 IF:1
165E:000001BA  inc  bx                                                EAX:00000000 EBX:0000086B ECX:00007FEA EDX:00000000 ESI:00000060 EDI:0000211E EBP:00007BD8 ESP:00007BC2 DS:F600 ES:1688 FS:0000 GS:0000 SS:3E00 CF:0 ZF:0 SF:0 OF:0 AF:0 PF:0 IF:1
165E:000001BB  cmp  bx,0B19                                           EAX:00000000 EBX:0000086C ECX:00007FEA EDX:00000000 ESI:00000060 EDI:0000211E EBP:00007BD8 ESP:00007BC2 DS:F600 ES:1688 FS:0000 GS:0000 SS:3E00 CF:0 ZF:0 SF:0 OF:0 AF:0 PF:1 IF:1
165E:000001BF  jc   000001B5 ($-c)             (up)                   EAX:00000000 EBX:0000086C ECX:00007FEA EDX:00000000 ESI:00000060 EDI:0000211E EBP:00007BD8 ESP:00007BC2 DS:F600 ES:1688 FS:0000 GS:0000 SS:3E00 CF:1 ZF:0 SF:1 OF:0 AF:0 PF:1 IF:1
165E:000001B5  lodsw                                                  EAX:00000000 EBX:0000086C ECX:00007FEA EDX:00000000 ESI:00000060 EDI:0000211E EBP:00007BD8 ESP:00007BC2 DS:F600 ES:1688 FS:0000 GS:0000 SS:3E00 CF:1 ZF:0 SF:1 OF:0 AF:0 PF:1 IF:1
165E:000001B6  xor  es:[bx],ax                 es:[086C]=3C9F         EAX:00000000 EBX:0000086C ECX:00007FEA EDX:00000000 ESI:00000062 EDI:0000211E EBP:00007BD8 ESP:00007BC2 DS:F600 ES:1688 FS:0000 GS:0000 SS:3E00 CF:1 ZF:0 SF:1 OF:0 AF:0 PF:1 IF:1
165E:000001B9  inc  bx                                                EAX:00000000 EBX:0000086C ECX:00007FEA EDX:00000000 ESI:00000062 EDI:0000211E EBP:00007BD8 ESP:00007BC2 DS:F600 ES:1688 FS:0000 GS:0000 SS:3E00 CF:0 ZF:0 SF:0 OF:0 AF:0 PF:1 IF:1
165E:000001BA  inc  bx                                                EAX:00000000 EBX:0000086D ECX:00007FEA EDX:00000000 ESI:00000062 EDI:0000211E EBP:00007BD8 ESP:00007BC2 DS:F600 ES:1688 FS:0000 GS:0000 SS:3E00 CF:0 ZF:0 SF:0 OF:0 AF:0 PF:0 IF:1
165E:000001BB  cmp  bx,0B19                                           EAX:00000000 EBX:0000086E ECX:00007FEA EDX:00000000 ESI:00000062 EDI:0000211E EBP:00007BD8 ESP:00007BC2 DS:F600 ES:1688 FS:0000 GS:0000 SS:3E00 CF:0 ZF:0 SF:0 OF:0 AF:0 PF:0 IF:1
165E:000001BF  jc   000001B5 ($-c)             (up)                   EAX:00000000 EBX:0000086E ECX:00007FEA EDX:00000000 ESI:00000062 EDI:0000211E EBP:00007BD8 ESP:00007BC2 DS:F600 ES:1688 FS:0000 GS:0000 SS:3E00 CF:1 ZF:0 SF:1 OF:0 AF:0 PF:1 IF:1
165E:000001B5  lodsw                                                  EAX:00000000 EBX:0000086E ECX:00007FEA EDX:00000000 ESI:00000062 EDI:0000211E EBP:00007BD8 ESP:00007BC2 DS:F600 ES:1688 FS:0000 GS:0000 SS:3E00 CF:1 ZF:0 SF:1 OF:0 AF:0 PF:1 IF:1
165E:000001B6  xor  es:[bx],ax                 es:[086E]=FE01         EAX:00000000 EBX:0000086E ECX:00007FEA EDX:00000000 ESI:00000064 EDI:0000211E EBP:00007BD8 ESP:00007BC2 DS:F600 ES:1688 FS:0000 GS:0000 SS:3E00 CF:1 ZF:0 SF:1 OF:0 AF:0 PF:1 IF:1
165E:000001B9  inc  bx                                                EAX:00000000 EBX:0000086E ECX:00007FEA EDX:00000000 ESI:00000064 EDI:0000211E EBP:00007BD8 ESP:00007BC2 DS:F600 ES:1688 FS:0000 GS:0000 SS:3E00 CF:0 ZF:0 SF:1 OF:0 AF:0 PF:0 IF:1
165E:000001BA  inc  bx                                                EAX:00000000 EBX:0000086F ECX:00007FEA EDX:00000000 ESI:00000064 EDI:0000211E EBP:00007BD8 ESP:00007BC2 DS:F600 ES:1688 FS:0000 GS:0000 SS:3E00 CF:0 ZF:0 SF:0 OF:0 AF:0 PF:1 IF:1
165E:000001BB  cmp  bx,0B19                                           EAX:00000000 EBX:00000870 ECX:00007FEA EDX:00000000 ESI:00000064 EDI:0000211E EBP:00007BD8 ESP:00007BC2 DS:F600 ES:1688 FS:0000 GS:0000 SS:3E00 CF:0 ZF:0 SF:0 OF:0 AF:1 PF:0 IF:1
165E:000001BF  jc   000001B5 ($-c)             (up)                   EAX:00000000 EBX:00000870 ECX:00007FEA EDX:00000000 ESI:00000064 EDI:0000211E EBP:00007BD8 ESP:00007BC2 DS:F600 ES:1688 FS:0000 GS:0000 SS:3E00 CF:1 ZF:0 SF:1 OF:0 AF:1 PF:0 IF:1
165E:000001B5  lodsw                                                  EAX:00000000 EBX:00000870 ECX:00007FEA EDX:00000000 ESI:00000064 EDI:0000211E EBP:00007BD8 ESP:00007BC2 DS:F600 ES:1688 FS:0000 GS:0000 SS:3E00 CF:1 ZF:0 SF:1 OF:0 AF:1 PF:0 IF:1
165E:000001B6  xor  es:[bx],ax                 es:[0870]=741B         EAX:00000000 EBX:00000870 ECX:00007FEA EDX:00000000 ESI:00000066 EDI:0000211E EBP:00007BD8 ESP:00007BC2 DS:F600 ES:1688 FS:0000 GS:0000 SS:3E00 CF:1 ZF:0 SF:1 OF:0 AF:1 PF:0 IF:1
165E:000001B9  inc  bx                                                EAX:00000000 EBX:00000870 ECX:00007FEA EDX:00000000 ESI:00000066 EDI:0000211E EBP:00007BD8 ESP:00007BC2 DS:F600 ES:1688 FS:0000 GS:0000 SS:3E00 CF:0 ZF:0 SF:0 OF:0 AF:0 PF:1 IF:1
165E:000001BA  inc  bx                                                EAX:00000000 EBX:00000871 ECX:00007FEA EDX:00000000 ESI:00000066 EDI:0000211E EBP:00007BD8 ESP:00007BC2 DS:F600 ES:1688 FS:0000 GS:0000 SS:3E00 CF:0 ZF:0 SF:0 OF:0 AF:0 PF:1 IF:1
165E:000001BB  cmp  bx,0B19                                           EAX:00000000 EBX:00000872 ECX:00007FEA EDX:00000000 ESI:00000066 EDI:0000211E EBP:00007BD8 ESP:00007BC2 DS:F600 ES:1688 FS:0000 GS:0000 SS:3E00 CF:0 ZF:0 SF:0 OF:0 AF:0 PF:1 IF:1
165E:000001BF  jc   000001B5 ($-c)             (up)                   EAX:00000000 EBX:00000872 ECX:00007FEA EDX:00000000 ESI:00000066 EDI:0000211E EBP:00007BD8 ESP:00007BC2 DS:F600 ES:1688 FS:0000 GS:0000 SS:3E00 CF:1 ZF:0 SF:1 OF:0 AF:1 PF:1 IF:1
165E:000001B5  lodsw                                                  EAX:00000000 EBX:00000872 ECX:00007FEA EDX:00000000 ESI:00000066 EDI:0000211E EBP:00007BD8 ESP:00007BC2 DS:F600 ES:1688 FS:0000 GS:0000 SS:3E00 CF:1 ZF:0 SF:1 OF:0 AF:1 PF:1 IF:1
165E:000001B6  xor  es:[bx],ax                 es:[0872]=6165         EAX:00000000 EBX:00000872 ECX:00007FEA EDX:00000000 ESI:00000068 EDI:0000211E EBP:00007BD8 ESP:00007BC2 DS:F600 ES:1688 FS:0000 GS:0000 SS:3E00 CF:1 ZF:0 SF:1 OF:0 AF:1 PF:1 IF:1
165E:000001B9  inc  bx                                                EAX:00000000 EBX:00000872 ECX:00007FEA EDX:00000000 ESI:00000068 EDI:0000211E EBP:00007BD8 ESP:00007BC2 DS:F600 ES:1688 FS:0000 GS:0000 SS:3E00 CF:0 ZF:0 SF:0 OF:0 AF:0 PF:1 IF:1
165E:000001BA  inc  bx                                                EAX:00000000 EBX:00000873 ECX:00007FEA EDX:00000000 ESI:00000068 EDI:0000211E EBP:00007BD8 ESP:00007BC2 DS:F600 ES:1688 FS:0000 GS:0000 SS:3E00 CF:0 ZF:0 SF:0 OF:0 AF:0 PF:0 IF:1
165E:000001BB  cmp  bx,0B19                                           EAX:00000000 EBX:00000874 ECX:00007FEA EDX:00000000 ESI:00000068 EDI:0000211E EBP:00007BD8 ESP:00007BC2 DS:F600 ES:1688 FS:0000 GS:0000 SS:3E00 CF:0 ZF:0 SF:0 OF:0 AF:0 PF:1 IF:1
165E:000001BF  jc   000001B5 ($-c)             (up)                   EAX:00000000 EBX:00000874 ECX:00007FEA EDX:00000000 ESI:00000068 EDI:0000211E EBP:00007BD8 ESP:00007BC2 DS:F600 ES:1688 FS:0000 GS:0000 SS:3E00 CF:1 ZF:0 SF:1 OF:0 AF:1 PF:0 IF:1
165E:000001B5  lodsw                                                  EAX:00000000 EBX:00000874 ECX:00007FEA EDX:00000000 ESI:00000068 EDI:0000211E EBP:00007BD8 ESP:00007BC2 DS:F600 ES:1688 FS:0000 GS:0000 SS:3E00 CF:1 ZF:0 SF:1 OF:0 AF:1 PF:0 IF:1
165E:000001B6  xor  es:[bx],ax                 es:[0874]=6CC5         EAX:00000000 EBX:00000874 ECX:00007FEA EDX:00000000 ESI:0000006A EDI:0000211E EBP:00007BD8 ESP:00007BC2 DS:F600 ES:1688 FS:0000 GS:0000 SS:3E00 CF:1 ZF:0 SF:1 OF:0 AF:1 PF:0 IF:1
165E:000001B9  inc  bx                                                EAX:00000000 EBX:00000874 ECX:00007FEA EDX:00000000 ESI:0000006A EDI:0000211E EBP:00007BD8 ESP:00007BC2 DS:F600 ES:1688 FS:0000 GS:0000 SS:3E00 CF:0 ZF:0 SF:0 OF:0 AF:0 PF:1 IF:1
165E:000001BA  inc  bx                                                EAX:00000000 EBX:00000875 ECX:00007FEA EDX:00000000 ESI:0000006A EDI:0000211E EBP:00007BD8 ESP:00007BC2 DS:F600 ES:1688 FS:0000 GS:0000 SS:3E00 CF:0 ZF:0 SF:0 OF:0 AF:0 PF:0 IF:1
165E:000001BB  cmp  bx,0B19                                           EAX:00000000 EBX:00000876 ECX:00007FEA EDX:00000000 ESI:0000006A EDI:0000211E EBP:00007BD8 ESP:00007BC2 DS:F600 ES:1688 FS:0000 GS:0000 SS:3E00 CF:0 ZF:0 SF:0 OF:0 AF:0 PF:0 IF:1
165E:000001BF  jc   000001B5 ($-c)             (up)                   EAX:00000000 EBX:00000876 ECX:00007FEA EDX:00000000 ESI:0000006A EDI:0000211E EBP:00007BD8 ESP:00007BC2 DS:F600 ES:1688 FS:0000 GS:0000 SS:3E00 CF:1 ZF:0 SF:1 OF:0 AF:1 PF:0 IF:1
165E:000001B5  lodsw                                                  EAX:00000000 EBX:00000876 ECX:00007FEA EDX:00000000 ESI:0000006A EDI:0000211E EBP:00007BD8 ESP:00007BC2 DS:F600 ES:1688 FS:0000 GS:0000 SS:3E00 CF:1 ZF:0 SF:1 OF:0 AF:1 PF:0 IF:1
165E:000001B6  xor  es:[bx],ax                 es:[0876]=E7A5         EAX:00000000 EBX:00000876 ECX:00007FEA EDX:00000000 ESI:0000006C EDI:0000211E EBP:00007BD8 ESP:00007BC2 DS:F600 ES:1688 FS:0000 GS:0000 SS:3E00 CF:1 ZF:0 SF:1 OF:0 AF:1 PF:0 IF:1
165E:000001B9  inc  bx                                                EAX:00000000 EBX:00000876 ECX:00007FEA EDX:00000000 ESI:0000006C EDI:0000211E EBP:00007BD8 ESP:00007BC2 DS:F600 ES:1688 FS:0000 GS:0000 SS:3E00 CF:0 ZF:0 SF:1 OF:0 AF:0 PF:1 IF:1
165E:000001BA  inc  bx                                                EAX:00000000 EBX:00000877 ECX:00007FEA EDX:00000000 ESI:0000006C EDI:0000211E EBP:00007BD8 ESP:00007BC2 DS:F600 ES:1688 FS:0000 GS:0000 SS:3E00 CF:0 ZF:0 SF:0 OF:0 AF:0 PF:1 IF:1
165E:000001BB  cmp  bx,0B19                                           EAX:00000000 EBX:00000878 ECX:00007FEA EDX:00000000 ESI:0000006C EDI:0000211E EBP:00007BD8 ESP:00007BC2 DS:F600 ES:1688 FS:0000 GS:0000 SS:3E00 CF:0 ZF:0 SF:0 OF:0 AF:0 PF:1 IF:1
165E:000001BF  jc   000001B5 ($-c)             (up)                   EAX:00000000 EBX:00000878 ECX:00007FEA EDX:00000000 ESI:0000006C EDI:0000211E EBP:00007BD8 ESP:00007BC2 DS:F600 ES:1688 FS:0000 GS:0000 SS:3E00 CF:1 ZF:0 SF:1 OF:0 AF:1 PF:1 IF:1
165E:000001B5  lodsw                                                  EAX:00000000 EBX:00000878 ECX:00007FEA EDX:00000000 ESI:0000006C EDI:0000211E EBP:00007BD8 ESP:00007BC2 DS:F600 ES:1688 FS:0000 GS:0000 SS:3E00 CF:1 ZF:0 SF:1 OF:0 AF:1 PF:1 IF:1
165E:000001B6  xor  es:[bx],ax                 es:[0878]=78D3         EAX:00000000 EBX:00000878 ECX:00007FEA EDX:00000000 ESI:0000006E EDI:0000211E EBP:00007BD8 ESP:00007BC2 DS:F600 ES:1688 FS:0000 GS:0000 SS:3E00 CF:1 ZF:0 SF:1 OF:0 AF:1 PF:1 IF:1
165E:000001B9  inc  bx                                                EAX:00000000 EBX:00000878 ECX:00007FEA EDX:00000000 ESI:0000006E EDI:0000211E EBP:00007BD8 ESP:00007BC2 DS:F600 ES:1688 FS:0000 GS:0000 SS:3E00 CF:0 ZF:0 SF:0 OF:0 AF:0 PF:0 IF:1
165E:000001BA  inc  bx                                                EAX:00000000 EBX:00000879 ECX:00007FEA EDX:00000000 ESI:0000006E EDI:0000211E EBP:00007BD8 ESP:00007BC2 DS:F600 ES:1688 FS:0000 GS:0000 SS:3E00 CF:0 ZF:0 SF:0 OF:0 AF:0 PF:0 IF:1
165E:000001BB  cmp  bx,0B19                                           EAX:00000000 EBX:0000087A ECX:00007FEA EDX:00000000 ESI:0000006E EDI:0000211E EBP:00007BD8 ESP:00007BC2 DS:F600 ES:1688 FS:0000 GS:0000 SS:3E00 CF:0 ZF:0 SF:0 OF:0 AF:0 PF:0 IF:1
165E:000001BF  jc   000001B5 ($-c)             (up)                   EAX:00000000 EBX:0000087A ECX:00007FEA EDX:00000000 ESI:0000006E EDI:0000211E EBP:00007BD8 ESP:00007BC2 DS:F600 ES:1688 FS:0000 GS:0000 SS:3E00 CF:1 ZF:0 SF:1 OF:0 AF:0 PF:0 IF:1
165E:000001B5  lodsw                                                  EAX:00000000 EBX:0000087A ECX:00007FEA EDX:00000000 ESI:0000006E EDI:0000211E EBP:00007BD8 ESP:00007BC2 DS:F600 ES:1688 FS:0000 GS:0000 SS:3E00 CF:1 ZF:0 SF:1 OF:0 AF:0 PF:0 IF:1
165E:000001B6  xor  es:[bx],ax                 es:[087A]=F4D0         EAX:00000000 EBX:0000087A ECX:00007FEA EDX:00000000 ESI:00000070 EDI:0000211E EBP:00007BD8 ESP:00007BC2 DS:F600 ES:1688 FS:0000 GS:0000 SS:3E00 CF:1 ZF:0 SF:1 OF:0 AF:0 PF:0 IF:1
165E:000001B9  inc  bx                                                EAX:00000000 EBX:0000087A ECX:00007FEA EDX:00000000 ESI:00000070 EDI:0000211E EBP:00007BD8 ESP:00007BC2 DS:F600 ES:1688 FS:0000 GS:0000 SS:3E00 CF:0 ZF:0 SF:1 OF:0 AF:0 PF:0 IF:1
165E:000001BA  inc  bx                                                EAX:00000000 EBX:0000087B ECX:00007FEA EDX:00000000 ESI:00000070 EDI:0000211E EBP:00007BD8 ESP:00007BC2 DS:F600 ES:1688 FS:0000 GS:0000 SS:3E00 CF:0 ZF:0 SF:0 OF:0 AF:0 PF:1 IF:1
165E:000001BB  cmp  bx,0B19                                           EAX:00000000 EBX:0000087C ECX:00007FEA EDX:00000000 ESI:00000070 EDI:0000211E EBP:00007BD8 ESP:00007BC2 DS:F600 ES:1688 FS:0000 GS:0000 SS:3E00 CF:0 ZF:0 SF:0 OF:0 AF:0 PF:0 IF:1
165E:000001BF  jc   000001B5 ($-c)             (up)                   EAX:00000000 EBX:0000087C ECX:00007FEA EDX:00000000 ESI:00000070 EDI:0000211E EBP:00007BD8 ESP:00007BC2 DS:F600 ES:1688 FS:0000 GS:0000 SS:3E00 CF:1 ZF:0 SF:1 OF:0 AF:0 PF:1 IF:1
165E:000001B5  lodsw                                                  EAX:00000000 EBX:0000087C ECX:00007FEA EDX:00000000 ESI:00000070 EDI:0000211E EBP:00007BD8 ESP:00007BC2 DS:F600 ES:1688 FS:0000 GS:0000 SS:3E00 CF:1 ZF:0 SF:1 OF:0 AF:0 PF:1 IF:1
165E:000001B6  xor  es:[bx],ax                 es:[087C]=29CE         EAX:00000000 EBX:0000087C ECX:00007FEA EDX:00000000 ESI:00000072 EDI:0000211E EBP:00007BD8 ESP:00007BC2 DS:F600 ES:1688 FS:0000 GS:0000 SS:3E00 CF:1 ZF:0 SF:1 OF:0 AF:0 PF:1 IF:1
165E:000001B9  inc  bx                                                EAX:00000000 EBX:0000087C ECX:00007FEA EDX:00000000 ESI:00000072 EDI:0000211E EBP:00007BD8 ESP:00007BC2 DS:F600 ES:1688 FS:0000 GS:0000 SS:3E00 CF:0 ZF:0 SF:0 OF:0 AF:0 PF:0 IF:1
165E:000001BA  inc  bx                                                EAX:00000000 EBX:0000087D ECX:00007FEA EDX:00000000 ESI:00000072 EDI:0000211E EBP:00007BD8 ESP:00007BC2 DS:F600 ES:1688 FS:0000 GS:0000 SS:3E00 CF:0 ZF:0 SF:0 OF:0 AF:0 PF:1 IF:1
165E:000001BB  cmp  bx,0B19                                           EAX:00000000 EBX:0000087E ECX:00007FEA EDX:00000000 ESI:00000072 EDI:0000211E EBP:00007BD8 ESP:00007BC2 DS:F600 ES:1688 FS:0000 GS:0000 SS:3E00 CF:0 ZF:0 SF:0 OF:0 AF:0 PF:1 IF:1
165E:000001BF  jc   000001B5 ($-c)             (up)                   EAX:00000000 EBX:0000087E ECX:00007FEA EDX:00000000 ESI:00000072 EDI:0000211E EBP:00007BD8 ESP:00007BC2 DS:F600 ES:1688 FS:0000 GS:0000 SS:3E00 CF:1 ZF:0 SF:1 OF:0 AF:0 PF:1 IF:1
165E:000001B5  lodsw                                                  EAX:00000000 EBX:0000087E ECX:00007FEA EDX:00000000 ESI:00000072 EDI:0000211E EBP:00007BD8 ESP:00007BC2 DS:F600 ES:1688 FS:0000 GS:0000 SS:3E00 CF:1 ZF:0 SF:1 OF:0 AF:0 PF:1 IF:1
165E:000001B6  xor  es:[bx],ax                 es:[087E]=5C2F         EAX:00000000 EBX:0000087E ECX:00007FEA EDX:00000000 ESI:00000074 EDI:0000211E EBP:00007BD8 ESP:00007BC2 DS:F600 ES:1688 FS:0000 GS:0000 SS:3E00 CF:1 ZF:0 SF:1 OF:0 AF:0 PF:1 IF:1
165E:000001B9  inc  bx                                                EAX:00000000 EBX:0000087E ECX:00007FEA EDX:00000000 ESI:00000074 EDI:0000211E EBP:00007BD8 ESP:00007BC2 DS:F600 ES:1688 FS:0000 GS:0000 SS:3E00 CF:0 ZF:0 SF:0 OF:0 AF:0 PF:0 IF:1
165E:000001BA  inc  bx                                                EAX:00000000 EBX:0000087F ECX:00007FEA EDX:00000000 ESI:00000074 EDI:0000211E EBP:00007BD8 ESP:00007BC2 DS:F600 ES:1688 FS:0000 GS:0000 SS:3E00 CF:0 ZF:0 SF:0 OF:0 AF:0 PF:0 IF:1
165E:000001BB  cmp  bx,0B19                                           EAX:00000000 EBX:00000880 ECX:00007FEA EDX:00000000 ESI:00000074 EDI:0000211E EBP:00007BD8 ESP:00007BC2 DS:F600 ES:1688 FS:0000 GS:0000 SS:3E00 CF:0 ZF:0 SF:0 OF:0 AF:1 PF:0 IF:1
165E:000001BF  jc   000001B5 ($-c)             (up)                   EAX:00000000 EBX:00000880 ECX:00007FEA EDX:00000000 ESI:00000074 EDI:0000211E EBP:00007BD8 ESP:00007BC2 DS:F600 ES:1688 FS:0000 GS:0000 SS:3E00 CF:1 ZF:0 SF:1 OF:0 AF:1 PF:0 IF:1
165E:000001B5  lodsw                                                  EAX:00000000 EBX:00000880 ECX:00007FEA EDX:00000000 ESI:00000074 EDI:0000211E EBP:00007BD8 ESP:00007BC2 DS:F600 ES:1688 FS:0000 GS:0000 SS:3E00 CF:1 ZF:0 SF:1 OF:0 AF:1 PF:0 IF:1
165E:000001B6  xor  es:[bx],ax                 es:[0880]=3366         EAX:00000000 EBX:00000880 ECX:00007FEA EDX:00000000 ESI:00000076 EDI:0000211E EBP:00007BD8 ESP:00007BC2 DS:F600 ES:1688 FS:0000 GS:0000 SS:3E00 CF:1 ZF:0 SF:1 OF:0 AF:1 PF:0 IF:1
165E:000001B9  inc  bx                                                EAX:00000000 EBX:00000880 ECX:00007FEA EDX:00000000 ESI:00000076 EDI:0000211E EBP:00007BD8 ESP:00007BC2 DS:F600 ES:1688 FS:0000 GS:0000 SS:3E00 CF:0 ZF:0 SF:0 OF:0 AF:0 PF:1 IF:1
165E:000001BA  inc  bx                                                EAX:00000000 EBX:00000881 ECX:00007FEA EDX:00000000 ESI:00000076 EDI:0000211E EBP:00007BD8 ESP:00007BC2 DS:F600 ES:1688 FS:0000 GS:0000 SS:3E00 CF:0 ZF:0 SF:0 OF:0 AF:0 PF:1 IF:1
165E:000001BB  cmp  bx,0B19                                           EAX:00000000 EBX:00000882 ECX:00007FEA EDX:00000000 ESI:00000076 EDI:0000211E EBP:00007BD8 ESP:00007BC2 DS:F600 ES:1688 FS:0000 GS:0000 SS:3E00 CF:0 ZF:0 SF:0 OF:0 AF:0 PF:1 IF:1
165E:000001BF  jc   000001B5 ($-c)             (up)                   EAX:00000000 EBX:00000882 ECX:00007FEA EDX:00000000 ESI:00000076 EDI:0000211E EBP:00007BD8 ESP:00007BC2 DS:F600 ES:1688 FS:0000 GS:0000 SS:3E00 CF:1 ZF:0 SF:1 OF:0 AF:1 PF:1 IF:1
165E:000001B5  lodsw                                                  EAX:00000000 EBX:00000882 ECX:00007FEA EDX:00000000 ESI:00000076 EDI:0000211E EBP:00007BD8 ESP:00007BC2 DS:F600 ES:1688 FS:0000 GS:0000 SS:3E00 CF:1 ZF:0 SF:1 OF:0 AF:1 PF:1 IF:1
165E:000001B6  xor  es:[bx],ax                 es:[0882]=85A2         EAX:00000000 EBX:00000882 ECX:00007FEA EDX:00000000 ESI:00000078 EDI:0000211E EBP:00007BD8 ESP:00007BC2 DS:F600 ES:1688 FS:0000 GS:0000 SS:3E00 CF:1 ZF:0 SF:1 OF:0 AF:1 PF:1 IF:1
165E:000001B9  inc  bx                                                EAX:00000000 EBX:00000882 ECX:00007FEA EDX:00000000 ESI:00000078 EDI:0000211E EBP:00007BD8 ESP:00007BC2 DS:F600 ES:1688 FS:0000 GS:0000 SS:3E00 CF:0 ZF:0 SF:1 OF:0 AF:0 PF:0 IF:1
165E:000001BA  inc  bx                                                EAX:00000000 EBX:00000883 ECX:00007FEA EDX:00000000 ESI:00000078 EDI:0000211E EBP:00007BD8 ESP:00007BC2 DS:F600 ES:1688 FS:0000 GS:0000 SS:3E00 CF:0 ZF:0 SF:0 OF:0 AF:0 PF:0 IF:1
165E:000001BB  cmp  bx,0B19                                           EAX:00000000 EBX:00000884 ECX:00007FEA EDX:00000000 ESI:00000078 EDI:0000211E EBP:00007BD8 ESP:00007BC2 DS:F600 ES:1688 FS:0000 GS:0000 SS:3E00 CF:0 ZF:0 SF:0 OF:0 AF:0 PF:1 IF:1
165E:000001BF  jc   000001B5 ($-c)             (up)                   EAX:00000000 EBX:00000884 ECX:00007FEA EDX:00000000 ESI:00000078 EDI:0000211E EBP:00007BD8 ESP:00007BC2 DS:F600 ES:1688 FS:0000 GS:0000 SS:3E00 CF:1 ZF:0 SF:1 OF:0 AF:1 PF:0 IF:1
165E:000001B5  lodsw                                                  EAX:00000000 EBX:00000884 ECX:00007FEA EDX:00000000 ESI:00000078 EDI:0000211E EBP:00007BD8 ESP:00007BC2 DS:F600 ES:1688 FS:0000 GS:0000 SS:3E00 CF:1 ZF:0 SF:1 OF:0 AF:1 PF:0 IF:1
165E:000001B6  xor  es:[bx],ax                 es:[0884]=AD13         EAX:00000000 EBX:00000884 ECX:00007FEA EDX:00000000 ESI:0000007A EDI:0000211E EBP:00007BD8 ESP:00007BC2 DS:F600 ES:1688 FS:0000 GS:0000 SS:3E00 CF:1 ZF:0 SF:1 OF:0 AF:1 PF:0 IF:1
165E:000001B9  inc  bx                                                EAX:00000000 EBX:00000884 ECX:00007FEA EDX:00000000 ESI:0000007A EDI:0000211E EBP:00007BD8 ESP:00007BC2 DS:F600 ES:1688 FS:0000 GS:0000 SS:3E00 CF:0 ZF:0 SF:1 OF:0 AF:0 PF:0 IF:1
165E:000001BA  inc  bx                                                EAX:00000000 EBX:00000885 ECX:00007FEA EDX:00000000 ESI:0000007A EDI:0000211E EBP:00007BD8 ESP:00007BC2 DS:F600 ES:1688 FS:0000 GS:0000 SS:3E00 CF:0 ZF:0 SF:0 OF:0 AF:0 PF:0 IF:1
165E:000001BB  cmp  bx,0B19                                           EAX:00000000 EBX:00000886 ECX:00007FEA EDX:00000000 ESI:0000007A EDI:0000211E EBP:00007BD8 ESP:00007BC2 DS:F600 ES:1688 FS:0000 GS:0000 SS:3E00 CF:0 ZF:0 SF:0 OF:0 AF:0 PF:0 IF:1
165E:000001BF  jc   000001B5 ($-c)             (up)                   EAX:00000000 EBX:00000886 ECX:00007FEA EDX:00000000 ESI:0000007A EDI:0000211E EBP:00007BD8 ESP:00007BC2 DS:F600 ES:1688 FS:0000 GS:0000 SS:3E00 CF:1 ZF:0 SF:1 OF:0 AF:1 PF:0 IF:1
165E:000001B5  lodsw                                                  EAX:00000000 EBX:00000886 ECX:00007FEA EDX:00000000 ESI:0000007A EDI:0000211E EBP:00007BD8 ESP:00007BC2 DS:F600 ES:1688 FS:0000 GS:0000 SS:3E00 CF:1 ZF:0 SF:1 OF:0 AF:1 PF:0 IF:1
165E:000001B6  xor  es:[bx],ax                 es:[0886]=F827         EAX:00000000 EBX:00000886 ECX:00007FEA EDX:00000000 ESI:0000007C EDI:0000211E EBP:00007BD8 ESP:00007BC2 DS:F600 ES:1688 FS:0000 GS:0000 SS:3E00 CF:1 ZF:0 SF:1 OF:0 AF:1 PF:0 IF:1
165E:000001B9  inc  bx                                                EAX:00000000 EBX:00000886 ECX:00007FEA EDX:00000000 ESI:0000007C EDI:0000211E EBP:00007BD8 ESP:00007BC2 DS:F600 ES:1688 FS:0000 GS:0000 SS:3E00 CF:0 ZF:0 SF:1 OF:0 AF:0 PF:1 IF:1
165E:000001BA  inc  bx                                                EAX:00000000 EBX:00000887 ECX:00007FEA EDX:00000000 ESI:0000007C EDI:0000211E EBP:00007BD8 ESP:00007BC2 DS:F600 ES:1688 FS:0000 GS:0000 SS:3E00 CF:0 ZF:0 SF:0 OF:0 AF:0 PF:1 IF:1
165E:000001BB  cmp  bx,0B19                                           EAX:00000000 EBX:00000888 ECX:00007FEA EDX:00000000 ESI:0000007C EDI:0000211E EBP:00007BD8 ESP:00007BC2 DS:F600 ES:1688 FS:0000 GS:0000 SS:3E00 CF:0 ZF:0 SF:0 OF:0 AF:0 PF:1 IF:1
165E:000001BF  jc   000001B5 ($-c)             (up)                   EAX:00000000 EBX:00000888 ECX:00007FEA EDX:00000000 ESI:0000007C EDI:0000211E EBP:00007BD8 ESP:00007BC2 DS:F600 ES:1688 FS:0000 GS:0000 SS:3E00 CF:1 ZF:0 SF:1 OF:0 AF:1 PF:1 IF:1
165E:000001B5  lodsw                                                  EAX:00000000 EBX:00000888 ECX:00007FEA EDX:00000000 ESI:0000007C EDI:0000211E EBP:00007BD8 ESP:00007BC2 DS:F600 ES:1688 FS:0000 GS:0000 SS:3E00 CF:1 ZF:0 SF:1 OF:0 AF:1 PF:1 IF:1
165E:000001B6  xor  es:[bx],ax                 es:[0888]=034A         EAX:00000000 EBX:00000888 ECX:00007FEA EDX:00000000 ESI:0000007E EDI:0000211E EBP:00007BD8 ESP:00007BC2 DS:F600 ES:1688 FS:0000 GS:0000 SS:3E00 CF:1 ZF:0 SF:1 OF:0 AF:1 PF:1 IF:1
165E:000001B9  inc  bx                                                EAX:00000000 EBX:00000888 ECX:00007FEA EDX:00000000 ESI:0000007E EDI:0000211E EBP:00007BD8 ESP:00007BC2 DS:F600 ES:1688 FS:0000 GS:0000 SS:3E00 CF:0 ZF:0 SF:0 OF:0 AF:0 PF:0 IF:1
165E:000001BA  inc  bx                                                EAX:00000000 EBX:00000889 ECX:00007FEA EDX:00000000 ESI:0000007E EDI:0000211E EBP:00007BD8 ESP:00007BC2 DS:F600 ES:1688 FS:0000 GS:0000 SS:3E00 CF:0 ZF:0 SF:0 OF:0 AF:0 PF:0 IF:1
165E:000001BB  cmp  bx,0B19                                           EAX:00000000 EBX:0000088A ECX:00007FEA EDX:00000000 ESI:0000007E EDI:0000211E EBP:00007BD8 ESP:00007BC2 DS:F600 ES:1688 FS:0000 GS:0000 SS:3E00 CF:0 ZF:0 SF:0 OF:0 AF:0 PF:0 IF:1
165E:000001BF  jc   000001B5 ($-c)             (up)                   EAX:00000000 EBX:0000088A ECX:00007FEA EDX:00000000 ESI:0000007E EDI:0000211E EBP:00007BD8 ESP:00007BC2 DS:F600 ES:1688 FS:0000 GS:0000 SS:3E00 CF:1 ZF:0 SF:1 OF:0 AF:0 PF:1 IF:1
165E:000001B5  lodsw                                                  EAX:00000000 EBX:0000088A ECX:00007FEA EDX:00000000 ESI:0000007E EDI:0000211E EBP:00007BD8 ESP:00007BC2 DS:F600 ES:1688 FS:0000 GS:0000 SS:3E00 CF:1 ZF:0 SF:1 OF:0 AF:0 PF:1 IF:1
165E:000001B6  xor  es:[bx],ax                 es:[088A]=ECE4         EAX:00000000 EBX:0000088A ECX:00007FEA EDX:00000000 ESI:00000080 EDI:0000211E EBP:00007BD8 ESP:00007BC2 DS:F600 ES:1688 FS:0000 GS:0000 SS:3E00 CF:1 ZF:0 SF:1 OF:0 AF:0 PF:1 IF:1
165E:000001B9  inc  bx                                                EAX:00000000 EBX:0000088A ECX:00007FEA EDX:00000000 ESI:00000080 EDI:0000211E EBP:00007BD8 ESP:00007BC2 DS:F600 ES:1688 FS:0000 GS:0000 SS:3E00 CF:0 ZF:0 SF:1 OF:0 AF:0 PF:1 IF:1
165E:000001BA  inc  bx                                                EAX:00000000 EBX:0000088B ECX:00007FEA EDX:00000000 ESI:00000080 EDI:0000211E EBP:00007BD8 ESP:00007BC2 DS:F600 ES:1688 FS:0000 GS:0000 SS:3E00 CF:0 ZF:0 SF:0 OF:0 AF:0 PF:1 IF:1
165E:000001BB  cmp  bx,0B19                                           EAX:00000000 EBX:0000088C ECX:00007FEA EDX:00000000 ESI:00000080 EDI:0000211E EBP:00007BD8 ESP:00007BC2 DS:F600 ES:1688 FS:0000 GS:0000 SS:3E00 CF:0 ZF:0 SF:0 OF:0 AF:0 PF:0 IF:1
165E:000001BF  jc   000001B5 ($-c)             (up)                   EAX:00000000 EBX:0000088C ECX:00007FEA EDX:00000000 ESI:00000080 EDI:0000211E EBP:00007BD8 ESP:00007BC2 DS:F600 ES:1688 FS:0000 GS:0000 SS:3E00 CF:1 ZF:0 SF:1 OF:0 AF:0 PF:0 IF:1
165E:000001B5  lodsw                                                  EAX:00000000 EBX:0000088C ECX:00007FEA EDX:00000000 ESI:00000080 EDI:0000211E EBP:00007BD8 ESP:00007BC2 DS:F600 ES:1688 FS:0000 GS:0000 SS:3E00 CF:1 ZF:0 SF:1 OF:0 AF:0 PF:0 IF:1
165E:000001B6  xor  es:[bx],ax                 es:[088C]=4099         EAX:00000000 EBX:0000088C ECX:00007FEA EDX:00000000 ESI:00000082 EDI:0000211E EBP:00007BD8 ESP:00007BC2 DS:F600 ES:1688 FS:0000 GS:0000 SS:3E00 CF:1 ZF:0 SF:1 OF:0 AF:0 PF:0 IF:1
165E:000001B9  inc  bx                                                EAX:00000000 EBX:0000088C ECX:00007FEA EDX:00000000 ESI:00000082 EDI:0000211E EBP:00007BD8 ESP:00007BC2 DS:F600 ES:1688 FS:0000 GS:0000 SS:3E00 CF:0 ZF:0 SF:0 OF:0 AF:0 PF:1 IF:1
165E:000001BA  inc  bx                                                EAX:00000000 EBX:0000088D ECX:00007FEA EDX:00000000 ESI:00000082 EDI:0000211E EBP:00007BD8 ESP:00007BC2 DS:F600 ES:1688 FS:0000 GS:0000 SS:3E00 CF:0 ZF:0 SF:0 OF:0 AF:0 PF:1 IF:1
165E:000001BB  cmp  bx,0B19                                           EAX:00000000 EBX:0000088E ECX:00007FEA EDX:00000000 ESI:00000082 EDI:0000211E EBP:00007BD8 ESP:00007BC2 DS:F600 ES:1688 FS:0000 GS:0000 SS:3E00 CF:0 ZF:0 SF:0 OF:0 AF:0 PF:1 IF:1
165E:000001BF  jc   000001B5 ($-c)             (up)                   EAX:00000000 EBX:0000088E ECX:00007FEA EDX:00000000 ESI:00000082 EDI:0000211E EBP:00007BD8 ESP:00007BC2 DS:F600 ES:1688 FS:0000 GS:0000 SS:3E00 CF:1 ZF:0 SF:1 OF:0 AF:0 PF:0 IF:1
